{
    "contractName": "EventTicketing",
    "abi": [
        {
            "inputs": [
                {
                    "internalType": "uint256",
                    "name": "_maxTickets",
                    "type": "uint256"
                },
                {
                    "internalType": "string",
                    "name": "_eventLocation",
                    "type": "string"
                },
                {
                    "internalType": "string",
                    "name": "_eventName",
                    "type": "string"
                },
                {
                    "internalType": "uint256",
                    "name": "_eventTime",
                    "type": "uint256"
                }
            ],
            "stateMutability": "nonpayable",
            "type": "constructor"
        },
        {
            "anonymous": false,
            "inputs": [
                {
                    "indexed": true,
                    "internalType": "address",
                    "name": "owner",
                    "type": "address"
                },
                {
                    "indexed": true,
                    "internalType": "address",
                    "name": "approved",
                    "type": "address"
                },
                {
                    "indexed": true,
                    "internalType": "uint256",
                    "name": "tokenId",
                    "type": "uint256"
                }
            ],
            "name": "Approval",
            "type": "event"
        },
        {
            "anonymous": false,
            "inputs": [
                {
                    "indexed": true,
                    "internalType": "address",
                    "name": "owner",
                    "type": "address"
                },
                {
                    "indexed": true,
                    "internalType": "address",
                    "name": "operator",
                    "type": "address"
                },
                {
                    "indexed": false,
                    "internalType": "bool",
                    "name": "approved",
                    "type": "bool"
                }
            ],
            "name": "ApprovalForAll",
            "type": "event"
        },
        {
            "anonymous": false,
            "inputs": [
                {
                    "indexed": false,
                    "internalType": "uint256",
                    "name": "_fromTokenId",
                    "type": "uint256"
                },
                {
                    "indexed": false,
                    "internalType": "uint256",
                    "name": "_toTokenId",
                    "type": "uint256"
                }
            ],
            "name": "BatchMetadataUpdate",
            "type": "event"
        },
        {
            "anonymous": false,
            "inputs": [
                {
                    "indexed": false,
                    "internalType": "uint256",
                    "name": "_tokenId",
                    "type": "uint256"
                }
            ],
            "name": "MetadataUpdate",
            "type": "event"
        },
        {
            "anonymous": false,
            "inputs": [
                {
                    "indexed": true,
                    "internalType": "address",
                    "name": "previousOwner",
                    "type": "address"
                },
                {
                    "indexed": true,
                    "internalType": "address",
                    "name": "newOwner",
                    "type": "address"
                }
            ],
            "name": "OwnershipTransferred",
            "type": "event"
        },
        {
            "anonymous": false,
            "inputs": [
                {
                    "indexed": true,
                    "internalType": "bytes32",
                    "name": "role",
                    "type": "bytes32"
                },
                {
                    "indexed": true,
                    "internalType": "bytes32",
                    "name": "previousAdminRole",
                    "type": "bytes32"
                },
                {
                    "indexed": true,
                    "internalType": "bytes32",
                    "name": "newAdminRole",
                    "type": "bytes32"
                }
            ],
            "name": "RoleAdminChanged",
            "type": "event"
        },
        {
            "anonymous": false,
            "inputs": [
                {
                    "indexed": true,
                    "internalType": "bytes32",
                    "name": "role",
                    "type": "bytes32"
                },
                {
                    "indexed": true,
                    "internalType": "address",
                    "name": "account",
                    "type": "address"
                },
                {
                    "indexed": true,
                    "internalType": "address",
                    "name": "sender",
                    "type": "address"
                }
            ],
            "name": "RoleGranted",
            "type": "event"
        },
        {
            "anonymous": false,
            "inputs": [
                {
                    "indexed": true,
                    "internalType": "bytes32",
                    "name": "role",
                    "type": "bytes32"
                },
                {
                    "indexed": true,
                    "internalType": "address",
                    "name": "account",
                    "type": "address"
                },
                {
                    "indexed": true,
                    "internalType": "address",
                    "name": "sender",
                    "type": "address"
                }
            ],
            "name": "RoleRevoked",
            "type": "event"
        },
        {
            "anonymous": false,
            "inputs": [
                {
                    "indexed": false,
                    "internalType": "uint256",
                    "name": "ticketId",
                    "type": "uint256"
                },
                {
                    "indexed": false,
                    "internalType": "address",
                    "name": "buyer",
                    "type": "address"
                }
            ],
            "name": "TicketBought",
            "type": "event"
        },
        {
            "anonymous": false,
            "inputs": [
                {
                    "indexed": false,
                    "internalType": "uint256",
                    "name": "ticketId",
                    "type": "uint256"
                },
                {
                    "indexed": false,
                    "internalType": "address",
                    "name": "creator",
                    "type": "address"
                }
            ],
            "name": "TicketCreated",
            "type": "event"
        },
        {
            "anonymous": false,
            "inputs": [
                {
                    "indexed": false,
                    "internalType": "uint256",
                    "name": "ticketId",
                    "type": "uint256"
                }
            ],
            "name": "TicketRevoked",
            "type": "event"
        },
        {
            "anonymous": false,
            "inputs": [
                {
                    "indexed": false,
                    "internalType": "uint256",
                    "name": "ticketId",
                    "type": "uint256"
                },
                {
                    "indexed": false,
                    "internalType": "address",
                    "name": "scanner",
                    "type": "address"
                }
            ],
            "name": "TicketScanned",
            "type": "event"
        },
        {
            "anonymous": false,
            "inputs": [
                {
                    "indexed": true,
                    "internalType": "address",
                    "name": "from",
                    "type": "address"
                },
                {
                    "indexed": true,
                    "internalType": "address",
                    "name": "to",
                    "type": "address"
                },
                {
                    "indexed": true,
                    "internalType": "uint256",
                    "name": "tokenId",
                    "type": "uint256"
                }
            ],
            "name": "Transfer",
            "type": "event"
        },
        {
            "inputs": [],
            "name": "DEFAULT_ADMIN_ROLE",
            "outputs": [
                {
                    "internalType": "bytes32",
                    "name": "",
                    "type": "bytes32"
                }
            ],
            "stateMutability": "view",
            "type": "function"
        },
        {
            "inputs": [],
            "name": "TICKET_SCANNER_ROLE",
            "outputs": [
                {
                    "internalType": "bytes32",
                    "name": "",
                    "type": "bytes32"
                }
            ],
            "stateMutability": "view",
            "type": "function"
        },
        {
            "inputs": [
                {
                    "internalType": "address",
                    "name": "to",
                    "type": "address"
                },
                {
                    "internalType": "uint256",
                    "name": "tokenId",
                    "type": "uint256"
                }
            ],
            "name": "approve",
            "outputs": [],
            "stateMutability": "nonpayable",
            "type": "function"
        },
        {
            "inputs": [
                {
                    "internalType": "address",
                    "name": "owner",
                    "type": "address"
                }
            ],
            "name": "balanceOf",
            "outputs": [
                {
                    "internalType": "uint256",
                    "name": "",
                    "type": "uint256"
                }
            ],
            "stateMutability": "view",
            "type": "function"
        },
        {
            "inputs": [
                {
                    "internalType": "uint256",
                    "name": "mintQuantity",
                    "type": "uint256"
                }
            ],
            "name": "batchMint",
            "outputs": [],
            "stateMutability": "nonpayable",
            "type": "function"
        },
        {
            "inputs": [
                {
                    "internalType": "uint256",
                    "name": "_ticketId",
                    "type": "uint256"
                },
                {
                    "internalType": "uint256",
                    "name": "_seatNumber",
                    "type": "uint256"
                },
                {
                    "internalType": "uint256",
                    "name": "_cost",
                    "type": "uint256"
                },
                {
                    "internalType": "uint256",
                    "name": "_date",
                    "type": "uint256"
                },
                {
                    "internalType": "uint256",
                    "name": "batchSize",
                    "type": "uint256"
                }
            ],
            "name": "batchTicket",
            "outputs": [],
            "stateMutability": "nonpayable",
            "type": "function"
        },
        {
            "inputs": [
                {
                    "internalType": "uint256",
                    "name": "_seatNumber",
                    "type": "uint256"
                },
                {
                    "internalType": "uint256",
                    "name": "ticketId",
                    "type": "uint256"
                }
            ],
            "name": "buyTicket",
            "outputs": [],
            "stateMutability": "payable",
            "type": "function"
        },
        {
            "inputs": [],
            "name": "cost",
            "outputs": [
                {
                    "internalType": "uint256",
                    "name": "",
                    "type": "uint256"
                }
            ],
            "stateMutability": "view",
            "type": "function"
        },
        {
            "inputs": [
                {
                    "internalType": "uint256",
                    "name": "_ticketId",
                    "type": "uint256"
                },
                {
                    "internalType": "uint256",
                    "name": "_seatNumber",
                    "type": "uint256"
                },
                {
                    "internalType": "uint256",
                    "name": "_cost",
                    "type": "uint256"
                },
                {
                    "internalType": "uint256",
                    "name": "_date",
                    "type": "uint256"
                }
            ],
            "name": "createTicket",
            "outputs": [],
            "stateMutability": "nonpayable",
            "type": "function"
        },
        {
            "inputs": [],
            "name": "eventLocation",
            "outputs": [
                {
                    "internalType": "string",
                    "name": "",
                    "type": "string"
                }
            ],
            "stateMutability": "view",
            "type": "function"
        },
        {
            "inputs": [],
            "name": "eventName",
            "outputs": [
                {
                    "internalType": "string",
                    "name": "",
                    "type": "string"
                }
            ],
            "stateMutability": "view",
            "type": "function"
        },
        {
            "inputs": [],
            "name": "eventTime",
            "outputs": [
                {
                    "internalType": "uint256",
                    "name": "",
                    "type": "uint256"
                }
            ],
            "stateMutability": "view",
            "type": "function"
        },
        {
            "inputs": [
                {
                    "internalType": "uint256",
                    "name": "tokenId",
                    "type": "uint256"
                }
            ],
            "name": "getApproved",
            "outputs": [
                {
                    "internalType": "address",
                    "name": "",
                    "type": "address"
                }
            ],
            "stateMutability": "view",
            "type": "function"
        },
        {
            "inputs": [],
            "name": "getNumTicketsMinted",
            "outputs": [
                {
                    "internalType": "uint256",
                    "name": "",
                    "type": "uint256"
                }
            ],
            "stateMutability": "view",
            "type": "function"
        },
        {
            "inputs": [
                {
                    "internalType": "bytes32",
                    "name": "role",
                    "type": "bytes32"
                }
            ],
            "name": "getRoleAdmin",
            "outputs": [
                {
                    "internalType": "bytes32",
                    "name": "",
                    "type": "bytes32"
                }
            ],
            "stateMutability": "view",
            "type": "function"
        },
        {
            "inputs": [
                {
                    "internalType": "bytes32",
                    "name": "role",
                    "type": "bytes32"
                },
                {
                    "internalType": "address",
                    "name": "account",
                    "type": "address"
                }
            ],
            "name": "grantRole",
            "outputs": [],
            "stateMutability": "nonpayable",
            "type": "function"
        },
        {
            "inputs": [
                {
                    "internalType": "bytes32",
                    "name": "role",
                    "type": "bytes32"
                },
                {
                    "internalType": "address",
                    "name": "account",
                    "type": "address"
                }
            ],
            "name": "hasRole",
            "outputs": [
                {
                    "internalType": "bool",
                    "name": "",
                    "type": "bool"
                }
            ],
            "stateMutability": "view",
            "type": "function"
        },
        {
            "inputs": [
                {
                    "internalType": "address",
                    "name": "owner",
                    "type": "address"
                },
                {
                    "internalType": "address",
                    "name": "operator",
                    "type": "address"
                }
            ],
            "name": "isApprovedForAll",
            "outputs": [
                {
                    "internalType": "bool",
                    "name": "",
                    "type": "bool"
                }
            ],
            "stateMutability": "view",
            "type": "function"
        },
        {
            "inputs": [
                {
                    "internalType": "uint256",
                    "name": "ticketId",
                    "type": "uint256"
                }
            ],
            "name": "isValid",
            "outputs": [
                {
                    "internalType": "bool",
                    "name": "",
                    "type": "bool"
                }
            ],
            "stateMutability": "view",
            "type": "function"
        },
        {
            "inputs": [],
            "name": "maxTickets",
            "outputs": [
                {
                    "internalType": "uint256",
                    "name": "",
                    "type": "uint256"
                }
            ],
            "stateMutability": "view",
            "type": "function"
        },
        {
            "inputs": [],
            "name": "name",
            "outputs": [
                {
                    "internalType": "string",
                    "name": "",
                    "type": "string"
                }
            ],
            "stateMutability": "view",
            "type": "function"
        },
        {
            "inputs": [
                {
                    "internalType": "address",
                    "name": "",
                    "type": "address"
                },
                {
                    "internalType": "address",
                    "name": "",
                    "type": "address"
                },
                {
                    "internalType": "uint256",
                    "name": "",
                    "type": "uint256"
                },
                {
                    "internalType": "bytes",
                    "name": "",
                    "type": "bytes"
                }
            ],
            "name": "onERC721Received",
            "outputs": [
                {
                    "internalType": "bytes4",
                    "name": "",
                    "type": "bytes4"
                }
            ],
            "stateMutability": "nonpayable",
            "type": "function"
        },
        {
            "inputs": [],
            "name": "owner",
            "outputs": [
                {
                    "internalType": "address",
                    "name": "",
                    "type": "address"
                }
            ],
            "stateMutability": "view",
            "type": "function"
        },
        {
            "inputs": [
                {
                    "internalType": "uint256",
                    "name": "tokenId",
                    "type": "uint256"
                }
            ],
            "name": "ownerOf",
            "outputs": [
                {
                    "internalType": "address",
                    "name": "",
                    "type": "address"
                }
            ],
            "stateMutability": "view",
            "type": "function"
        },
        {
            "inputs": [],
            "name": "renounceOwnership",
            "outputs": [],
            "stateMutability": "nonpayable",
            "type": "function"
        },
        {
            "inputs": [
                {
                    "internalType": "bytes32",
                    "name": "role",
                    "type": "bytes32"
                },
                {
                    "internalType": "address",
                    "name": "account",
                    "type": "address"
                }
            ],
            "name": "renounceRole",
            "outputs": [],
            "stateMutability": "nonpayable",
            "type": "function"
        },
        {
            "inputs": [
                {
                    "internalType": "bytes32",
                    "name": "role",
                    "type": "bytes32"
                },
                {
                    "internalType": "address",
                    "name": "account",
                    "type": "address"
                }
            ],
            "name": "revokeRole",
            "outputs": [],
            "stateMutability": "nonpayable",
            "type": "function"
        },
        {
            "inputs": [
                {
                    "internalType": "uint256",
                    "name": "ticketId",
                    "type": "uint256"
                }
            ],
            "name": "revokeTicket",
            "outputs": [],
            "stateMutability": "nonpayable",
            "type": "function"
        },
        {
            "inputs": [],
            "name": "safeMint",
            "outputs": [],
            "stateMutability": "nonpayable",
            "type": "function"
        },
        {
            "inputs": [
                {
                    "internalType": "address",
                    "name": "from",
                    "type": "address"
                },
                {
                    "internalType": "address",
                    "name": "to",
                    "type": "address"
                },
                {
                    "internalType": "uint256",
                    "name": "tokenId",
                    "type": "uint256"
                }
            ],
            "name": "safeTransferFrom",
            "outputs": [],
            "stateMutability": "nonpayable",
            "type": "function"
        },
        {
            "inputs": [
                {
                    "internalType": "address",
                    "name": "from",
                    "type": "address"
                },
                {
                    "internalType": "address",
                    "name": "to",
                    "type": "address"
                },
                {
                    "internalType": "uint256",
                    "name": "tokenId",
                    "type": "uint256"
                },
                {
                    "internalType": "bytes",
                    "name": "data",
                    "type": "bytes"
                }
            ],
            "name": "safeTransferFrom",
            "outputs": [],
            "stateMutability": "nonpayable",
            "type": "function"
        },
        {
            "inputs": [
                {
                    "internalType": "uint256",
                    "name": "ticketId",
                    "type": "uint256"
                }
            ],
            "name": "scanTicket",
            "outputs": [],
            "stateMutability": "nonpayable",
            "type": "function"
        },
        {
            "inputs": [
                {
                    "internalType": "uint256",
                    "name": "_seat",
                    "type": "uint256"
                }
            ],
            "name": "seatTaken",
            "outputs": [
                {
                    "internalType": "bool",
                    "name": "",
                    "type": "bool"
                }
            ],
            "stateMutability": "view",
            "type": "function"
        },
        {
            "inputs": [
                {
                    "internalType": "address",
                    "name": "operator",
                    "type": "address"
                },
                {
                    "internalType": "bool",
                    "name": "approved",
                    "type": "bool"
                }
            ],
            "name": "setApprovalForAll",
            "outputs": [],
            "stateMutability": "nonpayable",
            "type": "function"
        },
        {
            "inputs": [
                {
                    "internalType": "address",
                    "name": "ticketScanner",
                    "type": "address"
                }
            ],
            "name": "setupTicketScannerRoles",
            "outputs": [],
            "stateMutability": "nonpayable",
            "type": "function"
        },
        {
            "inputs": [
                {
                    "internalType": "bytes4",
                    "name": "interfaceId",
                    "type": "bytes4"
                }
            ],
            "name": "supportsInterface",
            "outputs": [
                {
                    "internalType": "bool",
                    "name": "",
                    "type": "bool"
                }
            ],
            "stateMutability": "view",
            "type": "function"
        },
        {
            "inputs": [],
            "name": "symbol",
            "outputs": [
                {
                    "internalType": "string",
                    "name": "",
                    "type": "string"
                }
            ],
            "stateMutability": "view",
            "type": "function"
        },
        {
            "inputs": [
                {
                    "internalType": "uint256",
                    "name": "ticket",
                    "type": "uint256"
                }
            ],
            "name": "ticketPrice",
            "outputs": [
                {
                    "internalType": "uint256",
                    "name": "",
                    "type": "uint256"
                }
            ],
            "stateMutability": "view",
            "type": "function"
        },
        {
            "inputs": [
                {
                    "internalType": "address",
                    "name": "",
                    "type": "address"
                }
            ],
            "name": "ticketScannerAddresses",
            "outputs": [
                {
                    "internalType": "uint256",
                    "name": "",
                    "type": "uint256"
                }
            ],
            "stateMutability": "view",
            "type": "function"
        },
        {
            "inputs": [
                {
                    "internalType": "uint256",
                    "name": "",
                    "type": "uint256"
                }
            ],
            "name": "tickets",
            "outputs": [
                {
                    "internalType": "uint256",
                    "name": "seatNumber",
                    "type": "uint256"
                },
                {
                    "internalType": "uint256",
                    "name": "cost",
                    "type": "uint256"
                },
                {
                    "internalType": "uint256",
                    "name": "date",
                    "type": "uint256"
                },
                {
                    "internalType": "bool",
                    "name": "hasBeenScanned",
                    "type": "bool"
                },
                {
                    "internalType": "bool",
                    "name": "isValid",
                    "type": "bool"
                },
                {
                    "internalType": "address",
                    "name": "purchaser",
                    "type": "address"
                }
            ],
            "stateMutability": "view",
            "type": "function"
        },
        {
            "inputs": [
                {
                    "internalType": "uint256",
                    "name": "index",
                    "type": "uint256"
                }
            ],
            "name": "tokenByIndex",
            "outputs": [
                {
                    "internalType": "uint256",
                    "name": "",
                    "type": "uint256"
                }
            ],
            "stateMutability": "view",
            "type": "function"
        },
        {
            "inputs": [
                {
                    "internalType": "address",
                    "name": "owner",
                    "type": "address"
                },
                {
                    "internalType": "uint256",
                    "name": "index",
                    "type": "uint256"
                }
            ],
            "name": "tokenOfOwnerByIndex",
            "outputs": [
                {
                    "internalType": "uint256",
                    "name": "",
                    "type": "uint256"
                }
            ],
            "stateMutability": "view",
            "type": "function"
        },
        {
            "inputs": [
                {
                    "internalType": "uint256",
                    "name": "tokenId",
                    "type": "uint256"
                }
            ],
            "name": "tokenURI",
            "outputs": [
                {
                    "internalType": "string",
                    "name": "",
                    "type": "string"
                }
            ],
            "stateMutability": "view",
            "type": "function"
        },
        {
            "inputs": [],
            "name": "totalSupply",
            "outputs": [
                {
                    "internalType": "uint256",
                    "name": "",
                    "type": "uint256"
                }
            ],
            "stateMutability": "view",
            "type": "function"
        },
        {
            "inputs": [
                {
                    "internalType": "address",
                    "name": "from",
                    "type": "address"
                },
                {
                    "internalType": "address",
                    "name": "to",
                    "type": "address"
                },
                {
                    "internalType": "uint256",
                    "name": "tokenId",
                    "type": "uint256"
                }
            ],
            "name": "transferFrom",
            "outputs": [],
            "stateMutability": "nonpayable",
            "type": "function"
        },
        {
            "inputs": [
                {
                    "internalType": "address",
                    "name": "newOwner",
                    "type": "address"
                }
            ],
            "name": "transferOwnership",
            "outputs": [],
            "stateMutability": "nonpayable",
            "type": "function"
        },
        {
            "inputs": [],
            "name": "withdraw",
            "outputs": [],
            "stateMutability": "nonpayable",
            "type": "function"
        }
    ],
    "bytecode": "60806040523480156200001157600080fd5b506040516200353c3803806200353c8339810160408190526200003491620002c8565b6040518060400160405280600e81526020016d4576656e745469636b6574696e6760901b815250604051806040016040528060048152602001634556544b60e01b8152508160009081620000899190620003d3565b506001620000988282620003d3565b505050620000b5620000af620000f960201b60201c565b620000fd565b600e849055600f620000c88482620003d3565b5060108190556011620000dc8382620003d3565b506064601255620000ef6000336200014f565b505050506200049f565b3390565b600b80546001600160a01b038381166001600160a01b0319831681179093556040519116919082907f8be0079c531659141344cd1fd0a4f28419497f9722a3daafe3b4186f6b6457e090600090a35050565b6200015b82826200015f565b5050565b6000828152600c602090815260408083206001600160a01b038516845290915290205460ff166200015b576000828152600c602090815260408083206001600160a01b03851684529091529020805460ff19166001179055620001bf3390565b6001600160a01b0316816001600160a01b0316837f2f8788117e7eff1d82e926ec794901d17c78024a50270940304540a733656f0d60405160405180910390a45050565b634e487b7160e01b600052604160045260246000fd5b600082601f8301126200022b57600080fd5b81516001600160401b038082111562000248576200024862000203565b604051601f8301601f19908116603f0116810190828211818310171562000273576200027362000203565b816040528381526020925086838588010111156200029057600080fd5b600091505b83821015620002b4578582018301518183018401529082019062000295565b600093810190920192909252949350505050565b60008060008060808587031215620002df57600080fd5b845160208601519094506001600160401b0380821115620002ff57600080fd5b6200030d8883890162000219565b945060408701519150808211156200032457600080fd5b50620003338782880162000219565b606096909601519497939650505050565b600181811c908216806200035957607f821691505b6020821081036200037a57634e487b7160e01b600052602260045260246000fd5b50919050565b601f821115620003ce57600081815260208120601f850160051c81016020861015620003a95750805b601f850160051c820191505b81811015620003ca57828155600101620003b5565b5050505b505050565b81516001600160401b03811115620003ef57620003ef62000203565b620004078162000400845462000344565b8462000380565b602080601f8311600181146200043f5760008415620004265750858301515b600019600386901b1c1916600185901b178555620003ca565b600085815260208120601f198616915b8281101562000470578886015182559484019460019091019084016200044f565b50858210156200048f5787850151600019600388901b60f8161c191681555b5050505050600190811b01905550565b61308d80620004af6000396000f3fe6080604052600436106102885760003560e01c80636871ee401161015a578063a22cb465116100c1578063e434d0a21161007a578063e434d0a21461081a578063e985e9c51461084e578063ee47321a14610897578063f2fde38b146108ac578063f577a500146108cc578063f6d1d652146108ec57600080fd5b8063a22cb4651461075a578063b88d4fde1461077a578063c47ab2de1461079a578063c87b56dd146107ba578063d547741f146107da578063daf62ebb146107fa57600080fd5b80638da5cb5b116101135780638da5cb5b146106bc57806391d14854146106da578063947e59b4146106fa57806395d89b411461071a5780639b8947031461072f578063a217fddf1461074557600080fd5b80636871ee401461061d57806370a0823114610632578063715018a6146106525780638043c9c014610667578063812e51f71461067c5780638467be0d1461069c57600080fd5b8063298ec208116101fe57806342842e0e116101b757806342842e0e146104e35780634f6ccce71461050357806350b447121461052357806362a2a9aa146105bd578063634bfa49146105dd5780636352211e146105fd57600080fd5b8063298ec208146104465780632a6ca755146104595780632f2ff15d1461046e5780632f745c591461048e57806336568abe146104ae5780633ccfd60b146104ce57600080fd5b80630d93e609116102505780630d93e6091461036257806313faede614610392578063150b7a02146103a857806318160ddd146103e157806323b872dd146103f6578063248a9ca31461041657600080fd5b806301ffc9a71461028d57806306fdde03146102c2578063081812fc146102e4578063095ea7b31461031c5780630c317e7b1461033e575b600080fd5b34801561029957600080fd5b506102ad6102a8366004612a14565b610919565b60405190151581526020015b60405180910390f35b3480156102ce57600080fd5b506102d761092a565b6040516102b99190612a81565b3480156102f057600080fd5b506103046102ff366004612a94565b6109bc565b6040516001600160a01b0390911681526020016102b9565b34801561032857600080fd5b5061033c610337366004612ac9565b6109e3565b005b34801561034a57600080fd5b5061035460105481565b6040519081526020016102b9565b34801561036e57600080fd5b5061035461037d366004612a94565b60009081526014602052604090206001015490565b34801561039e57600080fd5b5061035460125481565b3480156103b457600080fd5b506103c86103c3366004612b09565b610afd565b6040516001600160e01b031990911681526020016102b9565b3480156103ed57600080fd5b50600854610354565b34801561040257600080fd5b5061033c610411366004612be5565b610b0e565b34801561042257600080fd5b50610354610431366004612a94565b6000908152600c602052604090206001015490565b61033c610454366004612c21565b610b3f565b34801561046557600080fd5b506102d7610d6e565b34801561047a57600080fd5b5061033c610489366004612c43565b610dfc565b34801561049a57600080fd5b506103546104a9366004612ac9565b610e21565b3480156104ba57600080fd5b5061033c6104c9366004612c43565b610eb7565b3480156104da57600080fd5b5061033c610f35565b3480156104ef57600080fd5b5061033c6104fe366004612be5565b610f88565b34801561050f57600080fd5b5061035461051e366004612a94565b610fa3565b34801561052f57600080fd5b5061058361053e366004612a94565b60146020526000908152604090208054600182015460028301546003909301549192909160ff808216916101008104909116906201000090046001600160a01b031686565b6040805196875260208701959095529385019290925215156060840152151560808301526001600160a01b031660a082015260c0016102b9565b3480156105c957600080fd5b506102ad6105d8366004612a94565b611036565b3480156105e957600080fd5b5061033c6105f8366004612c6f565b61105c565b34801561060957600080fd5b50610304610618366004612a94565b611091565b34801561062957600080fd5b5061033c6110f1565b34801561063e57600080fd5b5061035461064d366004612c6f565b61117c565b34801561065e57600080fd5b5061033c611202565b34801561067357600080fd5b506102d7611216565b34801561068857600080fd5b5061033c610697366004612c8a565b611223565b3480156106a857600080fd5b5061033c6106b7366004612a94565b611463565b3480156106c857600080fd5b50600b546001600160a01b0316610304565b3480156106e657600080fd5b506102ad6106f5366004612c43565b611574565b34801561070657600080fd5b5061033c610715366004612a94565b61159f565b34801561072657600080fd5b506102d761162e565b34801561073b57600080fd5b50610354600e5481565b34801561075157600080fd5b50610354600081565b34801561076657600080fd5b5061033c610775366004612cbc565b61163d565b34801561078657600080fd5b5061033c610795366004612b09565b611648565b3480156107a657600080fd5b5061033c6107b5366004612cf8565b611680565b3480156107c657600080fd5b506102d76107d5366004612a94565b6116c9565b3480156107e657600080fd5b5061033c6107f5366004612c43565b6116d4565b34801561080657600080fd5b5061033c610815366004612a94565b6116f9565b34801561082657600080fd5b506103547f846b3416baf2034eb6fc9a55f2c0551358e1ebc556afaab07be9e0898e4cae4a81565b34801561085a57600080fd5b506102ad610869366004612d33565b6001600160a01b03918216600090815260056020908152604080832093909416825291909152205460ff1690565b3480156108a357600080fd5b50610354611815565b3480156108b857600080fd5b5061033c6108c7366004612c6f565b611825565b3480156108d857600080fd5b506102ad6108e7366004612a94565b61189b565b3480156108f857600080fd5b50610354610907366004612c6f565b60136020526000908152604090205481565b6000610924826118f3565b92915050565b60606000805461093990612d5d565b80601f016020809104026020016040519081016040528092919081815260200182805461096590612d5d565b80156109b25780601f10610987576101008083540402835291602001916109b2565b820191906000526020600020905b81548152906001019060200180831161099557829003601f168201915b5050505050905090565b60006109c782611918565b506000908152600460205260409020546001600160a01b031690565b60006109ee82611091565b9050806001600160a01b0316836001600160a01b031603610a605760405162461bcd60e51b815260206004820152602160248201527f4552433732313a20617070726f76616c20746f2063757272656e74206f776e656044820152603960f91b60648201526084015b60405180910390fd5b336001600160a01b0382161480610a7c5750610a7c8133610869565b610aee5760405162461bcd60e51b815260206004820152603d60248201527f4552433732313a20617070726f76652063616c6c6572206973206e6f7420746f60448201527f6b656e206f776e6572206f7220617070726f76656420666f7220616c6c0000006064820152608401610a57565b610af88383611977565b505050565b630a85bd0160e11b5b949350505050565b610b1833826119e5565b610b345760405162461bcd60e51b8152600401610a5790612d97565b610af8838383611a63565b610b4882611036565b15610b8a5760405162461bcd60e51b815260206004820152601260248201527129b2b0ba1030b63932b0b23c903a30b5b2b760711b6044820152606401610a57565b600d54821115610bd85760405162461bcd60e51b81526020600482015260196024820152784e6f7420656e6f756768206d696e746564207469636b65747360381b6044820152606401610a57565b60008281526014602052604090206003015460ff610100909104161515600114610c3a5760405162461bcd60e51b8152602060048201526013602482015272151a58dad95d081a5cc81b9bdd081d985b1a59606a1b6044820152606401610a57565b600082815260146020526040902060010154341015610c935760405162461bcd60e51b8152602060048201526015602482015274139bdd08195b9bdd59da08199d5b991cc81cd95b9d605a1b6044820152606401610a57565b6000828152601460205260409020600301805462010000600160b01b0319163362010000810291909117909155610ccc90309083610b0e565b600082815260146020526040902060010154341115610d315760008281526014602052604090206001015433906108fc90610d079034612dfa565b6040518115909202916000818181858888f19350505050158015610d2f573d6000803e3d6000fd5b505b604080518381523360208201527f6606e4c8a88792ed4fd5159f9be235ca78e87fc1cbdc6158ea92d3ed3be9bf7291015b60405180910390a15050565b600f8054610d7b90612d5d565b80601f0160208091040260200160405190810160405280929190818152602001828054610da790612d5d565b8015610df45780601f10610dc957610100808354040283529160200191610df4565b820191906000526020600020905b815481529060010190602001808311610dd757829003601f168201915b505050505081565b6000828152600c6020526040902060010154610e1781611bd4565b610af88383611bde565b6000610e2c8361117c565b8210610e8e5760405162461bcd60e51b815260206004820152602b60248201527f455243373231456e756d657261626c653a206f776e657220696e646578206f7560448201526a74206f6620626f756e647360a81b6064820152608401610a57565b506001600160a01b03919091166000908152600660209081526040808320938352929052205490565b6001600160a01b0381163314610f275760405162461bcd60e51b815260206004820152602f60248201527f416363657373436f6e74726f6c3a2063616e206f6e6c792072656e6f756e636560448201526e103937b632b9903337b91039b2b63360891b6064820152608401610a57565b610f318282611c64565b5050565b610f3d611ccb565b47610f50600b546001600160a01b031690565b6001600160a01b03166108fc829081150290604051600060405180830381858888f19350505050158015610f31573d6000803e3d6000fd5b610af883838360405180602001604052806000815250611648565b6000610fae60085490565b82106110115760405162461bcd60e51b815260206004820152602c60248201527f455243373231456e756d657261626c653a20676c6f62616c20696e646578206f60448201526b7574206f6620626f756e647360a01b6064820152608401610a57565b6008828154811061102457611024612e0d565b90600052602060002001549050919050565b6000908152601460205260409020600301546201000090046001600160a01b0316151590565b611064611ccb565b61108e7f846b3416baf2034eb6fc9a55f2c0551358e1ebc556afaab07be9e0898e4cae4a82610dfc565b50565b6000818152600260205260408120546001600160a01b0316806109245760405162461bcd60e51b8152602060048201526018602482015277115490cdcc8c4e881a5b9d985b1a59081d1bdad95b88125160421b6044820152606401610a57565b6110f9611ccb565b6000611104600d5490565b9050600e548111156111645760405162461bcd60e51b8152602060048201526024808201527f4d6178206e756d626572206f66207469636b65747320616c7265616479206d696044820152631b9d195960e21b6064820152608401610a57565b611172600d80546001019055565b61108e3082611d25565b60006001600160a01b0382166111e65760405162461bcd60e51b815260206004820152602960248201527f4552433732313a2061646472657373207a65726f206973206e6f7420612076616044820152683634b21037bbb732b960b91b6064820152608401610a57565b506001600160a01b031660009081526003602052604090205490565b61120a611ccb565b6112146000611d3f565b565b60118054610d7b90612d5d565b61122b611ccb565b61123483611036565b156112785760405162461bcd60e51b815260206004820152601460248201527314d9585d08185b1c9958591e4818dc99585d195960621b6044820152606401610a57565b600e548411156112d65760405162461bcd60e51b8152602060048201526024808201527f5469636b65742049442069732067726561746572207468616e206d61785469636044820152636b65747360e01b6064820152608401610a57565b600e548311156113375760405162461bcd60e51b815260206004820152602660248201527f53656174206e756d6265722069732067726561746572207468616e206d61785460448201526569636b65747360d01b6064820152608401610a57565b600d548411156113855760405162461bcd60e51b81526020600482015260196024820152784e6f7420656e6f756768206d696e746564207469636b65747360381b6044820152606401610a57565b6040805160c081018252848152602080820185815282840185815260006060850181815260016080870181815260a088018481528d8552601488529389902088518155955191860191909155925160028501555160039093018054925191516001600160a01b0316620100000262010000600160b01b03199215156101000261ff00199515159590951661ffff199094169390931793909317161790558251878152339181019190915290917f960fa3b53d2527c64fb943b9502a4541b1137488cb027f95b36b06b44d10fedc910160405180910390a15050505050565b61146b611ccb565b6000611476600d5490565b600e549091506114868383612e23565b11156114fa5760405162461bcd60e51b815260206004820152603f60248201527f4d6178206e756d626572206f66207469636b65747320616c7265616479206d6960448201527f6e746564206f722062617463682077696c6c20626520746f6f206c61726765006064820152608401610a57565b6001821161153f5760405162461bcd60e51b81526020600482015260126024820152714e65656420746f206d696e7420736f6d652160701b6044820152606401610a57565b60005b82811015610af8576115543083611d25565b8161155e81612e36565b925050808061156c90612e36565b915050611542565b6000918252600c602090815260408084206001600160a01b0393909316845291905290205460ff1690565b6115a7611ccb565b60008181526014602052604081206002015490036115d75760405162461bcd60e51b8152600401610a5790612e4f565b60008181526014602052604090819020600301805461ff0019169055517f0b85dd1448de72541ab9f2a9a8d8024b26ec89b9a6675ddcd8cfe1d1d2c60224906116239083815260200190565b60405180910390a150565b60606001805461093990612d5d565b610f31338383611d91565b61165233836119e5565b61166e5760405162461bcd60e51b8152600401610a5790612d97565b61167a84848484611e5f565b50505050565b611688611ccb565b8460005b828110156116c0576116a087878787611223565b816116aa81612e36565b92505080806116b890612e36565b91505061168c565b50505050505050565b606061092482611e92565b6000828152600c60205260409020600101546116ef81611bd4565b610af88383611c64565b7f846b3416baf2034eb6fc9a55f2c0551358e1ebc556afaab07be9e0898e4cae4a61172381611bd4565b60008281526014602052604081206002015490036117535760405162461bcd60e51b8152600401610a5790612e4f565b600082815260146020526040812060030154610100900460ff16151590036117b55760405162461bcd60e51b81526020600482015260156024820152745469636b6574206d7573742062652076616c69642160581b6044820152606401610a57565b60008281526014602052604090819020600301805460ff19166001179055517fcc6b0d410e7ef73ccc91ccbb9c6511f62cd7d587a3ac7adabeaca71c3346cbf990610d6290849033909182526001600160a01b0316602082015260400190565b6000611820600d5490565b905090565b61182d611ccb565b6001600160a01b0381166118925760405162461bcd60e51b815260206004820152602660248201527f4f776e61626c653a206e6577206f776e657220697320746865207a65726f206160448201526564647265737360d01b6064820152608401610a57565b61108e81611d3f565b600081815260146020526040812060030154610100900460ff16151581036118d55760405162461bcd60e51b8152600401610a5790612e4f565b50600090815260146020526040902060030154610100900460ff1690565b60006001600160e01b03198216637965db0b60e01b1480610924575061092482611fbf565b6000818152600260205260409020546001600160a01b031661108e5760405162461bcd60e51b8152602060048201526018602482015277115490cdcc8c4e881a5b9d985b1a59081d1bdad95b88125160421b6044820152606401610a57565b600081815260046020526040902080546001600160a01b0319166001600160a01b03841690811790915581906119ac82611091565b6001600160a01b03167f8c5be1e5ebec7d5bd14f71427d1e84f3dd0314c0f7b2291e5b200ac8c7c3b92560405160405180910390a45050565b6000806119f183611091565b9050806001600160a01b0316846001600160a01b03161480611a3857506001600160a01b0380821660009081526005602090815260408083209388168352929052205460ff165b80610b065750836001600160a01b0316611a51846109bc565b6001600160a01b031614949350505050565b826001600160a01b0316611a7682611091565b6001600160a01b031614611a9c5760405162461bcd60e51b8152600401610a5790612e7e565b6001600160a01b038216611afe5760405162461bcd60e51b8152602060048201526024808201527f4552433732313a207472616e7366657220746f20746865207a65726f206164646044820152637265737360e01b6064820152608401610a57565b611b0b8383836001611fe4565b826001600160a01b0316611b1e82611091565b6001600160a01b031614611b445760405162461bcd60e51b8152600401610a5790612e7e565b600081815260046020908152604080832080546001600160a01b03199081169091556001600160a01b0387811680865260038552838620805460001901905590871680865283862080546001019055868652600290945282852080549092168417909155905184937fddf252ad1be2c89b69c2b068fc378daa952ba7f163c4a11628f55a4df523b3ef91a4505050565b61108e8133611ff0565b611be88282611574565b610f31576000828152600c602090815260408083206001600160a01b03851684529091529020805460ff19166001179055611c203390565b6001600160a01b0316816001600160a01b0316837f2f8788117e7eff1d82e926ec794901d17c78024a50270940304540a733656f0d60405160405180910390a45050565b611c6e8282611574565b15610f31576000828152600c602090815260408083206001600160a01b0385168085529252808320805460ff1916905551339285917ff6391f5c32d9c69d2a47ea670b442974b53935d1edc7fd64eb21e047a839171b9190a45050565b600b546001600160a01b031633146112145760405162461bcd60e51b815260206004820181905260248201527f4f776e61626c653a2063616c6c6572206973206e6f7420746865206f776e65726044820152606401610a57565b610f31828260405180602001604052806000815250612049565b600b80546001600160a01b038381166001600160a01b0319831681179093556040519116919082907f8be0079c531659141344cd1fd0a4f28419497f9722a3daafe3b4186f6b6457e090600090a35050565b816001600160a01b0316836001600160a01b031603611df25760405162461bcd60e51b815260206004820152601960248201527f4552433732313a20617070726f766520746f2063616c6c6572000000000000006044820152606401610a57565b6001600160a01b03838116600081815260056020908152604080832094871680845294825291829020805460ff191686151590811790915591519182527f17307eab39ab6107e8899845ad3d59bd9653f200f220920489ca2b5937696c31910160405180910390a3505050565b611e6a848484611a63565b611e768484848461207c565b61167a5760405162461bcd60e51b8152600401610a5790612ec3565b6060611e9d82611918565b6000828152600a602052604081208054611eb690612d5d565b80601f0160208091040260200160405190810160405280929190818152602001828054611ee290612d5d565b8015611f2f5780601f10611f0457610100808354040283529160200191611f2f565b820191906000526020600020905b815481529060010190602001808311611f1257829003601f168201915b505050505090506000611f7260408051808201909152601d81527f687474703a2f2f7777772e746f626564657465726d696e65642e636f6d000000602082015290565b90508051600003611f84575092915050565b815115611fb6578082604051602001611f9e929190612f15565b60405160208183030381529060405292505050919050565b610b068461217a565b60006001600160e01b03198216632483248360e11b1480610924575061092482612213565b61167a84848484612238565b611ffa8282611574565b610f31576120078161236c565b61201283602061237e565b604051602001612023929190612f44565b60408051601f198184030181529082905262461bcd60e51b8252610a5791600401612a81565b612053838361251a565b612060600084848461207c565b610af85760405162461bcd60e51b8152600401610a5790612ec3565b60006001600160a01b0384163b1561217257604051630a85bd0160e11b81526001600160a01b0385169063150b7a02906120c0903390899088908890600401612fb9565b6020604051808303816000875af19250505080156120fb575060408051601f3d908101601f191682019092526120f891810190612ff6565b60015b612158573d808015612129576040519150601f19603f3d011682016040523d82523d6000602084013e61212e565b606091505b5080516000036121505760405162461bcd60e51b8152600401610a5790612ec3565b805181602001fd5b6001600160e01b031916630a85bd0160e11b149050610b06565b506001610b06565b606061218582611918565b60006121c160408051808201909152601d81527f687474703a2f2f7777772e746f626564657465726d696e65642e636f6d000000602082015290565b905060008151116121e1576040518060200160405280600081525061220c565b806121eb846126b3565b6040516020016121fc929190612f15565b6040516020818303038152906040525b9392505050565b60006001600160e01b0319821663780e9d6360e01b1480610924575061092482612746565b60018111156122a75760405162461bcd60e51b815260206004820152603560248201527f455243373231456e756d657261626c653a20636f6e7365637574697665207472604482015274185b9cd9995c9cc81b9bdd081cdd5c1c1bdc9d1959605a1b6064820152608401610a57565b816001600160a01b038516612303576122fe81600880546000838152600960205260408120829055600182018355919091527ff3f7a9fe364faab93b216da50a3214154f22a0a2b415b23a84c8169e8b636ee30155565b612326565b836001600160a01b0316856001600160a01b031614612326576123268582612796565b6001600160a01b0384166123425761233d81612833565b612365565b846001600160a01b0316846001600160a01b0316146123655761236584826128e2565b5050505050565b60606109246001600160a01b03831660145b6060600061238d836002613013565b612398906002612e23565b67ffffffffffffffff8111156123b0576123b0612af3565b6040519080825280601f01601f1916602001820160405280156123da576020820181803683370190505b509050600360fc1b816000815181106123f5576123f5612e0d565b60200101906001600160f81b031916908160001a905350600f60fb1b8160018151811061242457612424612e0d565b60200101906001600160f81b031916908160001a9053506000612448846002613013565b612453906001612e23565b90505b60018111156124cb576f181899199a1a9b1b9c1cb0b131b232b360811b85600f166010811061248757612487612e0d565b1a60f81b82828151811061249d5761249d612e0d565b60200101906001600160f81b031916908160001a90535060049490941c936124c48161302a565b9050612456565b50831561220c5760405162461bcd60e51b815260206004820181905260248201527f537472696e67733a20686578206c656e67746820696e73756666696369656e746044820152606401610a57565b6001600160a01b0382166125705760405162461bcd60e51b815260206004820181905260248201527f4552433732313a206d696e7420746f20746865207a65726f20616464726573736044820152606401610a57565b6000818152600260205260409020546001600160a01b0316156125d55760405162461bcd60e51b815260206004820152601c60248201527f4552433732313a20746f6b656e20616c7265616479206d696e746564000000006044820152606401610a57565b6125e3600083836001611fe4565b6000818152600260205260409020546001600160a01b0316156126485760405162461bcd60e51b815260206004820152601c60248201527f4552433732313a20746f6b656e20616c7265616479206d696e746564000000006044820152606401610a57565b6001600160a01b038216600081815260036020908152604080832080546001019055848352600290915280822080546001600160a01b0319168417905551839291907fddf252ad1be2c89b69c2b068fc378daa952ba7f163c4a11628f55a4df523b3ef908290a45050565b606060006126c083612926565b600101905060008167ffffffffffffffff8111156126e0576126e0612af3565b6040519080825280601f01601f19166020018201604052801561270a576020820181803683370190505b5090508181016020015b600019016f181899199a1a9b1b9c1cb0b131b232b360811b600a86061a8153600a850494508461271457509392505050565b60006001600160e01b031982166380ac58cd60e01b148061277757506001600160e01b03198216635b5e139f60e01b145b8061092457506301ffc9a760e01b6001600160e01b0319831614610924565b600060016127a38461117c565b6127ad9190612dfa565b600083815260076020526040902054909150808214612800576001600160a01b03841660009081526006602090815260408083208584528252808320548484528184208190558352600790915290208190555b5060009182526007602090815260408084208490556001600160a01b039094168352600681528383209183525290812055565b60085460009061284590600190612dfa565b6000838152600960205260408120546008805493945090928490811061286d5761286d612e0d565b90600052602060002001549050806008838154811061288e5761288e612e0d565b60009182526020808320909101929092558281526009909152604080822084905585825281205560088054806128c6576128c6613041565b6001900381819060005260206000200160009055905550505050565b60006128ed8361117c565b6001600160a01b039093166000908152600660209081526040808320868452825280832085905593825260079052919091209190915550565b60008072184f03e93ff9f4daa797ed6e38ed64bf6a1f0160401b83106129655772184f03e93ff9f4daa797ed6e38ed64bf6a1f0160401b830492506040015b6d04ee2d6d415b85acef81000000008310612991576d04ee2d6d415b85acef8100000000830492506020015b662386f26fc1000083106129af57662386f26fc10000830492506010015b6305f5e10083106129c7576305f5e100830492506008015b61271083106129db57612710830492506004015b606483106129ed576064830492506002015b600a83106109245760010192915050565b6001600160e01b03198116811461108e57600080fd5b600060208284031215612a2657600080fd5b813561220c816129fe565b60005b83811015612a4c578181015183820152602001612a34565b50506000910152565b60008151808452612a6d816020860160208601612a31565b601f01601f19169290920160200192915050565b60208152600061220c6020830184612a55565b600060208284031215612aa657600080fd5b5035919050565b80356001600160a01b0381168114612ac457600080fd5b919050565b60008060408385031215612adc57600080fd5b612ae583612aad565b946020939093013593505050565b634e487b7160e01b600052604160045260246000fd5b60008060008060808587031215612b1f57600080fd5b612b2885612aad565b9350612b3660208601612aad565b925060408501359150606085013567ffffffffffffffff80821115612b5a57600080fd5b818701915087601f830112612b6e57600080fd5b813581811115612b8057612b80612af3565b604051601f8201601f19908116603f01168101908382118183101715612ba857612ba8612af3565b816040528281528a6020848701011115612bc157600080fd5b82602086016020830137600060208483010152809550505050505092959194509250565b600080600060608486031215612bfa57600080fd5b612c0384612aad565b9250612c1160208501612aad565b9150604084013590509250925092565b60008060408385031215612c3457600080fd5b50508035926020909101359150565b60008060408385031215612c5657600080fd5b82359150612c6660208401612aad565b90509250929050565b600060208284031215612c8157600080fd5b61220c82612aad565b60008060008060808587031215612ca057600080fd5b5050823594602084013594506040840135936060013592509050565b60008060408385031215612ccf57600080fd5b612cd883612aad565b915060208301358015158114612ced57600080fd5b809150509250929050565b600080600080600060a08688031215612d1057600080fd5b505083359560208501359550604085013594606081013594506080013592509050565b60008060408385031215612d4657600080fd5b612d4f83612aad565b9150612c6660208401612aad565b600181811c90821680612d7157607f821691505b602082108103612d9157634e487b7160e01b600052602260045260246000fd5b50919050565b6020808252602d908201527f4552433732313a2063616c6c6572206973206e6f7420746f6b656e206f776e6560408201526c1c881bdc88185c1c1c9bdd9959609a1b606082015260800190565b634e487b7160e01b600052601160045260246000fd5b8181038181111561092457610924612de4565b634e487b7160e01b600052603260045260246000fd5b8082018082111561092457610924612de4565b600060018201612e4857612e48612de4565b5060010190565b6020808252601590820152745469636b657420646f65736e27742065786973742160581b604082015260600190565b60208082526025908201527f4552433732313a207472616e736665722066726f6d20696e636f72726563742060408201526437bbb732b960d91b606082015260800190565b60208082526032908201527f4552433732313a207472616e7366657220746f206e6f6e20455243373231526560408201527131b2b4bb32b91034b6b83632b6b2b73a32b960711b606082015260800190565b60008351612f27818460208801612a31565b835190830190612f3b818360208801612a31565b01949350505050565b7f416363657373436f6e74726f6c3a206163636f756e7420000000000000000000815260008351612f7c816017850160208801612a31565b7001034b99036b4b9b9b4b733903937b6329607d1b6017918401918201528351612fad816028840160208801612a31565b01602801949350505050565b6001600160a01b0385811682528416602082015260408101839052608060608201819052600090612fec90830184612a55565b9695505050505050565b60006020828403121561300857600080fd5b815161220c816129fe565b808202811582820484141761092457610924612de4565b60008161303957613039612de4565b506000190190565b634e487b7160e01b600052603160045260246000fdfea2646970667358221220e737a1824f15c1fb4fda11a25c94b6bb8c7b19ff21e3737dc4a9388210d00b5364736f6c63430008130033",
    "sourcePath": "/home/tr/Desktop/Event-Ticketing_June2023/contracts/EventTicketing.sol",
    "compiler": {
        "name": "solc",
        "version": "0.8.19+commit.7dd6d404"
    },
    "functionHashes": {
        "DEFAULT_ADMIN_ROLE()": "a217fddf",
        "TICKET_SCANNER_ROLE()": "e434d0a2",
        "approve(address,uint256)": "095ea7b3",
        "balanceOf(address)": "70a08231",
        "batchMint(uint256)": "8467be0d",
        "batchTicket(uint256,uint256,uint256,uint256,uint256)": "c47ab2de",
        "buyTicket(uint256,uint256)": "298ec208",
        "cost()": "13faede6",
        "createTicket(uint256,uint256,uint256,uint256)": "812e51f7",
        "eventLocation()": "2a6ca755",
        "eventName()": "8043c9c0",
        "eventTime()": "0c317e7b",
        "getApproved(uint256)": "081812fc",
        "getNumTicketsMinted()": "ee47321a",
        "getRoleAdmin(bytes32)": "248a9ca3",
        "grantRole(bytes32,address)": "2f2ff15d",
        "hasRole(bytes32,address)": "91d14854",
        "isApprovedForAll(address,address)": "e985e9c5",
        "isValid(uint256)": "f577a500",
        "maxTickets()": "9b894703",
        "name()": "06fdde03",
        "onERC721Received(address,address,uint256,bytes)": "150b7a02",
        "owner()": "8da5cb5b",
        "ownerOf(uint256)": "6352211e",
        "renounceOwnership()": "715018a6",
        "renounceRole(bytes32,address)": "36568abe",
        "revokeRole(bytes32,address)": "d547741f",
        "revokeTicket(uint256)": "947e59b4",
        "safeMint()": "6871ee40",
        "safeTransferFrom(address,address,uint256)": "42842e0e",
        "safeTransferFrom(address,address,uint256,bytes)": "b88d4fde",
        "scanTicket(uint256)": "daf62ebb",
        "seatTaken(uint256)": "62a2a9aa",
        "setApprovalForAll(address,bool)": "a22cb465",
        "setupTicketScannerRoles(address)": "634bfa49",
        "supportsInterface(bytes4)": "01ffc9a7",
        "symbol()": "95d89b41",
        "ticketPrice(uint256)": "0d93e609",
        "ticketScannerAddresses(address)": "f6d1d652",
        "tickets(uint256)": "50b44712",
        "tokenByIndex(uint256)": "4f6ccce7",
        "tokenOfOwnerByIndex(address,uint256)": "2f745c59",
        "tokenURI(uint256)": "c87b56dd",
        "totalSupply()": "18160ddd",
        "transferFrom(address,address,uint256)": "23b872dd",
        "transferOwnership(address)": "f2fde38b",
        "withdraw()": "3ccfd60b"
    },
    "gasEstimates": {
        "creation": {
            "codeDepositCost": "2485800",
            "executionCost": "infinite",
            "totalCost": "infinite"
        },
        "external": {
            "DEFAULT_ADMIN_ROLE()": "350",
            "TICKET_SCANNER_ROLE()": "239",
            "approve(address,uint256)": "infinite",
            "balanceOf(address)": "2657",
            "batchMint(uint256)": "infinite",
            "batchTicket(uint256,uint256,uint256,uint256,uint256)": "infinite",
            "buyTicket(uint256,uint256)": "infinite",
            "cost()": "2363",
            "createTicket(uint256,uint256,uint256,uint256)": "103499",
            "eventLocation()": "infinite",
            "eventName()": "infinite",
            "eventTime()": "2430",
            "getApproved(uint256)": "4815",
            "getNumTicketsMinted()": "2418",
            "getRoleAdmin(bytes32)": "2600",
            "grantRole(bytes32,address)": "infinite",
            "hasRole(bytes32,address)": "2721",
            "isApprovedForAll(address,address)": "infinite",
            "isValid(uint256)": "4820",
            "maxTickets()": "2428",
            "name()": "infinite",
            "onERC721Received(address,address,uint256,bytes)": "infinite",
            "owner()": "2376",
            "ownerOf(uint256)": "2693",
            "renounceOwnership()": "infinite",
            "renounceRole(bytes32,address)": "29135",
            "revokeRole(bytes32,address)": "infinite",
            "revokeTicket(uint256)": "30039",
            "safeMint()": "infinite",
            "safeTransferFrom(address,address,uint256)": "infinite",
            "safeTransferFrom(address,address,uint256,bytes)": "infinite",
            "scanTicket(uint256)": "infinite",
            "seatTaken(uint256)": "2597",
            "setApprovalForAll(address,bool)": "26728",
            "setupTicketScannerRoles(address)": "infinite",
            "supportsInterface(bytes4)": "infinite",
            "symbol()": "infinite",
            "ticketPrice(uint256)": "2490",
            "ticketScannerAddresses(address)": "2673",
            "tickets(uint256)": "9065",
            "tokenByIndex(uint256)": "6782",
            "tokenOfOwnerByIndex(address,uint256)": "5042",
            "tokenURI(uint256)": "infinite",
            "totalSupply()": "2404",
            "transferFrom(address,address,uint256)": "infinite",
            "transferOwnership(address)": "28446",
            "withdraw()": "infinite"
        },
        "internal": {
            "_baseURI()": "infinite",
            "_beforeTokenTransfer(address,address,uint256,uint256)": "infinite",
            "_burn(uint256)": "infinite"
        }
    }
}