{
    "_format": "hh-sol-artifact-1",
    "contractName": "EventTicketing",
    "sourceName": "contracts/EventTicketing.sol",
    "abi": [
        {
            "inputs": [
                {
                    "internalType": "uint256",
                    "name": "_maxTickets",
                    "type": "uint256"
                },
                {
                    "internalType": "string",
                    "name": "_eventLocation",
                    "type": "string"
                },
                {
                    "internalType": "string",
                    "name": "_eventName",
                    "type": "string"
                },
                {
                    "internalType": "uint256",
                    "name": "_eventTime",
                    "type": "uint256"
                }
            ],
            "stateMutability": "nonpayable",
            "type": "constructor"
        },
        {
            "anonymous": false,
            "inputs": [
                {
                    "indexed": true,
                    "internalType": "address",
                    "name": "owner",
                    "type": "address"
                },
                {
                    "indexed": true,
                    "internalType": "address",
                    "name": "approved",
                    "type": "address"
                },
                {
                    "indexed": true,
                    "internalType": "uint256",
                    "name": "tokenId",
                    "type": "uint256"
                }
            ],
            "name": "Approval",
            "type": "event"
        },
        {
            "anonymous": false,
            "inputs": [
                {
                    "indexed": true,
                    "internalType": "address",
                    "name": "owner",
                    "type": "address"
                },
                {
                    "indexed": true,
                    "internalType": "address",
                    "name": "operator",
                    "type": "address"
                },
                {
                    "indexed": false,
                    "internalType": "bool",
                    "name": "approved",
                    "type": "bool"
                }
            ],
            "name": "ApprovalForAll",
            "type": "event"
        },
        {
            "anonymous": false,
            "inputs": [
                {
                    "indexed": false,
                    "internalType": "uint256",
                    "name": "_fromTokenId",
                    "type": "uint256"
                },
                {
                    "indexed": false,
                    "internalType": "uint256",
                    "name": "_toTokenId",
                    "type": "uint256"
                }
            ],
            "name": "BatchMetadataUpdate",
            "type": "event"
        },
        {
            "anonymous": false,
            "inputs": [
                {
                    "indexed": false,
                    "internalType": "uint256",
                    "name": "_tokenId",
                    "type": "uint256"
                }
            ],
            "name": "MetadataUpdate",
            "type": "event"
        },
        {
            "anonymous": false,
            "inputs": [
                {
                    "indexed": true,
                    "internalType": "address",
                    "name": "previousOwner",
                    "type": "address"
                },
                {
                    "indexed": true,
                    "internalType": "address",
                    "name": "newOwner",
                    "type": "address"
                }
            ],
            "name": "OwnershipTransferred",
            "type": "event"
        },
        {
            "anonymous": false,
            "inputs": [
                {
                    "indexed": true,
                    "internalType": "bytes32",
                    "name": "role",
                    "type": "bytes32"
                },
                {
                    "indexed": true,
                    "internalType": "bytes32",
                    "name": "previousAdminRole",
                    "type": "bytes32"
                },
                {
                    "indexed": true,
                    "internalType": "bytes32",
                    "name": "newAdminRole",
                    "type": "bytes32"
                }
            ],
            "name": "RoleAdminChanged",
            "type": "event"
        },
        {
            "anonymous": false,
            "inputs": [
                {
                    "indexed": true,
                    "internalType": "bytes32",
                    "name": "role",
                    "type": "bytes32"
                },
                {
                    "indexed": true,
                    "internalType": "address",
                    "name": "account",
                    "type": "address"
                },
                {
                    "indexed": true,
                    "internalType": "address",
                    "name": "sender",
                    "type": "address"
                }
            ],
            "name": "RoleGranted",
            "type": "event"
        },
        {
            "anonymous": false,
            "inputs": [
                {
                    "indexed": true,
                    "internalType": "bytes32",
                    "name": "role",
                    "type": "bytes32"
                },
                {
                    "indexed": true,
                    "internalType": "address",
                    "name": "account",
                    "type": "address"
                },
                {
                    "indexed": true,
                    "internalType": "address",
                    "name": "sender",
                    "type": "address"
                }
            ],
            "name": "RoleRevoked",
            "type": "event"
        },
        {
            "anonymous": false,
            "inputs": [
                {
                    "indexed": false,
                    "internalType": "uint256",
                    "name": "ticketId",
                    "type": "uint256"
                },
                {
                    "indexed": false,
                    "internalType": "address",
                    "name": "buyer",
                    "type": "address"
                }
            ],
            "name": "TicketBought",
            "type": "event"
        },
        {
            "anonymous": false,
            "inputs": [
                {
                    "indexed": false,
                    "internalType": "uint256",
                    "name": "ticketId",
                    "type": "uint256"
                },
                {
                    "indexed": false,
                    "internalType": "address",
                    "name": "creator",
                    "type": "address"
                }
            ],
            "name": "TicketCreated",
            "type": "event"
        },
        {
            "anonymous": false,
            "inputs": [
                {
                    "indexed": false,
                    "internalType": "uint256",
                    "name": "ticketId",
                    "type": "uint256"
                }
            ],
            "name": "TicketRevoked",
            "type": "event"
        },
        {
            "anonymous": false,
            "inputs": [
                {
                    "indexed": false,
                    "internalType": "uint256",
                    "name": "ticketId",
                    "type": "uint256"
                },
                {
                    "indexed": false,
                    "internalType": "address",
                    "name": "scanner",
                    "type": "address"
                }
            ],
            "name": "TicketScanned",
            "type": "event"
        },
        {
            "anonymous": false,
            "inputs": [
                {
                    "indexed": true,
                    "internalType": "address",
                    "name": "from",
                    "type": "address"
                },
                {
                    "indexed": true,
                    "internalType": "address",
                    "name": "to",
                    "type": "address"
                },
                {
                    "indexed": true,
                    "internalType": "uint256",
                    "name": "tokenId",
                    "type": "uint256"
                }
            ],
            "name": "Transfer",
            "type": "event"
        },
        {
            "inputs": [],
            "name": "DEFAULT_ADMIN_ROLE",
            "outputs": [
                {
                    "internalType": "bytes32",
                    "name": "",
                    "type": "bytes32"
                }
            ],
            "stateMutability": "view",
            "type": "function"
        },
        {
            "inputs": [],
            "name": "TICKET_SCANNER_ROLE",
            "outputs": [
                {
                    "internalType": "bytes32",
                    "name": "",
                    "type": "bytes32"
                }
            ],
            "stateMutability": "view",
            "type": "function"
        },
        {
            "inputs": [
                {
                    "internalType": "address",
                    "name": "to",
                    "type": "address"
                },
                {
                    "internalType": "uint256",
                    "name": "tokenId",
                    "type": "uint256"
                }
            ],
            "name": "approve",
            "outputs": [],
            "stateMutability": "nonpayable",
            "type": "function"
        },
        {
            "inputs": [
                {
                    "internalType": "address",
                    "name": "owner",
                    "type": "address"
                }
            ],
            "name": "balanceOf",
            "outputs": [
                {
                    "internalType": "uint256",
                    "name": "",
                    "type": "uint256"
                }
            ],
            "stateMutability": "view",
            "type": "function"
        },
        {
            "inputs": [
                {
                    "internalType": "uint256",
                    "name": "_seatNumber",
                    "type": "uint256"
                }
            ],
            "name": "buyTicket",
            "outputs": [],
            "stateMutability": "payable",
            "type": "function"
        },
        {
            "inputs": [],
            "name": "cost",
            "outputs": [
                {
                    "internalType": "uint256",
                    "name": "",
                    "type": "uint256"
                }
            ],
            "stateMutability": "view",
            "type": "function"
        },
        {
            "inputs": [
                {
                    "internalType": "uint256",
                    "name": "_ticketId",
                    "type": "uint256"
                },
                {
                    "internalType": "uint256",
                    "name": "_seatNumber",
                    "type": "uint256"
                },
                {
                    "internalType": "uint256",
                    "name": "_cost",
                    "type": "uint256"
                },
                {
                    "internalType": "uint256",
                    "name": "_date",
                    "type": "uint256"
                }
            ],
            "name": "createTicket",
            "outputs": [],
            "stateMutability": "nonpayable",
            "type": "function"
        },
        {
            "inputs": [],
            "name": "eventLocation",
            "outputs": [
                {
                    "internalType": "string",
                    "name": "",
                    "type": "string"
                }
            ],
            "stateMutability": "view",
            "type": "function"
        },
        {
            "inputs": [],
            "name": "eventName",
            "outputs": [
                {
                    "internalType": "string",
                    "name": "",
                    "type": "string"
                }
            ],
            "stateMutability": "view",
            "type": "function"
        },
        {
            "inputs": [],
            "name": "eventTime",
            "outputs": [
                {
                    "internalType": "uint256",
                    "name": "",
                    "type": "uint256"
                }
            ],
            "stateMutability": "view",
            "type": "function"
        },
        {
            "inputs": [
                {
                    "internalType": "uint256",
                    "name": "tokenId",
                    "type": "uint256"
                }
            ],
            "name": "getApproved",
            "outputs": [
                {
                    "internalType": "address",
                    "name": "",
                    "type": "address"
                }
            ],
            "stateMutability": "view",
            "type": "function"
        },
        {
            "inputs": [],
            "name": "getNumTicketsMinted",
            "outputs": [
                {
                    "internalType": "uint256",
                    "name": "",
                    "type": "uint256"
                }
            ],
            "stateMutability": "view",
            "type": "function"
        },
        {
            "inputs": [
                {
                    "internalType": "bytes32",
                    "name": "role",
                    "type": "bytes32"
                }
            ],
            "name": "getRoleAdmin",
            "outputs": [
                {
                    "internalType": "bytes32",
                    "name": "",
                    "type": "bytes32"
                }
            ],
            "stateMutability": "view",
            "type": "function"
        },
        {
            "inputs": [
                {
                    "internalType": "bytes32",
                    "name": "role",
                    "type": "bytes32"
                },
                {
                    "internalType": "address",
                    "name": "account",
                    "type": "address"
                }
            ],
            "name": "grantRole",
            "outputs": [],
            "stateMutability": "nonpayable",
            "type": "function"
        },
        {
            "inputs": [
                {
                    "internalType": "bytes32",
                    "name": "role",
                    "type": "bytes32"
                },
                {
                    "internalType": "address",
                    "name": "account",
                    "type": "address"
                }
            ],
            "name": "hasRole",
            "outputs": [
                {
                    "internalType": "bool",
                    "name": "",
                    "type": "bool"
                }
            ],
            "stateMutability": "view",
            "type": "function"
        },
        {
            "inputs": [
                {
                    "internalType": "address",
                    "name": "owner",
                    "type": "address"
                },
                {
                    "internalType": "address",
                    "name": "operator",
                    "type": "address"
                }
            ],
            "name": "isApprovedForAll",
            "outputs": [
                {
                    "internalType": "bool",
                    "name": "",
                    "type": "bool"
                }
            ],
            "stateMutability": "view",
            "type": "function"
        },
        {
            "inputs": [
                {
                    "internalType": "uint256",
                    "name": "ticketId",
                    "type": "uint256"
                }
            ],
            "name": "isValid",
            "outputs": [
                {
                    "internalType": "bool",
                    "name": "",
                    "type": "bool"
                }
            ],
            "stateMutability": "view",
            "type": "function"
        },
        {
            "inputs": [],
            "name": "maxTickets",
            "outputs": [
                {
                    "internalType": "uint256",
                    "name": "",
                    "type": "uint256"
                }
            ],
            "stateMutability": "view",
            "type": "function"
        },
        {
            "inputs": [],
            "name": "name",
            "outputs": [
                {
                    "internalType": "string",
                    "name": "",
                    "type": "string"
                }
            ],
            "stateMutability": "view",
            "type": "function"
        },
        {
            "inputs": [],
            "name": "owner",
            "outputs": [
                {
                    "internalType": "address",
                    "name": "",
                    "type": "address"
                }
            ],
            "stateMutability": "view",
            "type": "function"
        },
        {
            "inputs": [
                {
                    "internalType": "uint256",
                    "name": "tokenId",
                    "type": "uint256"
                }
            ],
            "name": "ownerOf",
            "outputs": [
                {
                    "internalType": "address",
                    "name": "",
                    "type": "address"
                }
            ],
            "stateMutability": "view",
            "type": "function"
        },
        {
            "inputs": [],
            "name": "renounceOwnership",
            "outputs": [],
            "stateMutability": "nonpayable",
            "type": "function"
        },
        {
            "inputs": [
                {
                    "internalType": "bytes32",
                    "name": "role",
                    "type": "bytes32"
                },
                {
                    "internalType": "address",
                    "name": "account",
                    "type": "address"
                }
            ],
            "name": "renounceRole",
            "outputs": [],
            "stateMutability": "nonpayable",
            "type": "function"
        },
        {
            "inputs": [
                {
                    "internalType": "bytes32",
                    "name": "role",
                    "type": "bytes32"
                },
                {
                    "internalType": "address",
                    "name": "account",
                    "type": "address"
                }
            ],
            "name": "revokeRole",
            "outputs": [],
            "stateMutability": "nonpayable",
            "type": "function"
        },
        {
            "inputs": [
                {
                    "internalType": "uint256",
                    "name": "ticketId",
                    "type": "uint256"
                }
            ],
            "name": "revokeTicket",
            "outputs": [],
            "stateMutability": "nonpayable",
            "type": "function"
        },
        {
            "inputs": [
                {
                    "internalType": "uint256",
                    "name": "numTickets",
                    "type": "uint256"
                }
            ],
            "name": "safeMint",
            "outputs": [],
            "stateMutability": "nonpayable",
            "type": "function"
        },
        {
            "inputs": [
                {
                    "internalType": "address",
                    "name": "from",
                    "type": "address"
                },
                {
                    "internalType": "address",
                    "name": "to",
                    "type": "address"
                },
                {
                    "internalType": "uint256",
                    "name": "tokenId",
                    "type": "uint256"
                }
            ],
            "name": "safeTransferFrom",
            "outputs": [],
            "stateMutability": "nonpayable",
            "type": "function"
        },
        {
            "inputs": [
                {
                    "internalType": "address",
                    "name": "from",
                    "type": "address"
                },
                {
                    "internalType": "address",
                    "name": "to",
                    "type": "address"
                },
                {
                    "internalType": "uint256",
                    "name": "tokenId",
                    "type": "uint256"
                },
                {
                    "internalType": "bytes",
                    "name": "data",
                    "type": "bytes"
                }
            ],
            "name": "safeTransferFrom",
            "outputs": [],
            "stateMutability": "nonpayable",
            "type": "function"
        },
        {
            "inputs": [
                {
                    "internalType": "uint256",
                    "name": "ticketId",
                    "type": "uint256"
                }
            ],
            "name": "scanTicket",
            "outputs": [],
            "stateMutability": "nonpayable",
            "type": "function"
        },
        {
            "inputs": [
                {
                    "internalType": "uint256",
                    "name": "_seat",
                    "type": "uint256"
                }
            ],
            "name": "seatTaken",
            "outputs": [
                {
                    "internalType": "bool",
                    "name": "",
                    "type": "bool"
                }
            ],
            "stateMutability": "view",
            "type": "function"
        },
        {
            "inputs": [
                {
                    "internalType": "address",
                    "name": "operator",
                    "type": "address"
                },
                {
                    "internalType": "bool",
                    "name": "approved",
                    "type": "bool"
                }
            ],
            "name": "setApprovalForAll",
            "outputs": [],
            "stateMutability": "nonpayable",
            "type": "function"
        },
        {
            "inputs": [
                {
                    "internalType": "address",
                    "name": "ticketScanner",
                    "type": "address"
                }
            ],
            "name": "setupTicketScannerRoles",
            "outputs": [],
            "stateMutability": "nonpayable",
            "type": "function"
        },
        {
            "inputs": [
                {
                    "internalType": "bytes4",
                    "name": "interfaceId",
                    "type": "bytes4"
                }
            ],
            "name": "supportsInterface",
            "outputs": [
                {
                    "internalType": "bool",
                    "name": "",
                    "type": "bool"
                }
            ],
            "stateMutability": "view",
            "type": "function"
        },
        {
            "inputs": [],
            "name": "symbol",
            "outputs": [
                {
                    "internalType": "string",
                    "name": "",
                    "type": "string"
                }
            ],
            "stateMutability": "view",
            "type": "function"
        },
        {
            "inputs": [
                {
                    "internalType": "uint256",
                    "name": "ticket",
                    "type": "uint256"
                }
            ],
            "name": "ticketPrice",
            "outputs": [
                {
                    "internalType": "uint256",
                    "name": "",
                    "type": "uint256"
                }
            ],
            "stateMutability": "view",
            "type": "function"
        },
        {
            "inputs": [
                {
                    "internalType": "address",
                    "name": "",
                    "type": "address"
                }
            ],
            "name": "ticketScannerAddresses",
            "outputs": [
                {
                    "internalType": "uint256",
                    "name": "",
                    "type": "uint256"
                }
            ],
            "stateMutability": "view",
            "type": "function"
        },
        {
            "inputs": [
                {
                    "internalType": "uint256",
                    "name": "",
                    "type": "uint256"
                }
            ],
            "name": "tickets",
            "outputs": [
                {
                    "internalType": "uint256",
                    "name": "seatNumber",
                    "type": "uint256"
                },
                {
                    "internalType": "uint256",
                    "name": "cost",
                    "type": "uint256"
                },
                {
                    "internalType": "uint256",
                    "name": "date",
                    "type": "uint256"
                },
                {
                    "internalType": "bool",
                    "name": "hasBeenScanned",
                    "type": "bool"
                },
                {
                    "internalType": "bool",
                    "name": "isValid",
                    "type": "bool"
                },
                {
                    "internalType": "address",
                    "name": "purchaser",
                    "type": "address"
                }
            ],
            "stateMutability": "view",
            "type": "function"
        },
        {
            "inputs": [
                {
                    "internalType": "uint256",
                    "name": "index",
                    "type": "uint256"
                }
            ],
            "name": "tokenByIndex",
            "outputs": [
                {
                    "internalType": "uint256",
                    "name": "",
                    "type": "uint256"
                }
            ],
            "stateMutability": "view",
            "type": "function"
        },
        {
            "inputs": [
                {
                    "internalType": "address",
                    "name": "owner",
                    "type": "address"
                },
                {
                    "internalType": "uint256",
                    "name": "index",
                    "type": "uint256"
                }
            ],
            "name": "tokenOfOwnerByIndex",
            "outputs": [
                {
                    "internalType": "uint256",
                    "name": "",
                    "type": "uint256"
                }
            ],
            "stateMutability": "view",
            "type": "function"
        },
        {
            "inputs": [
                {
                    "internalType": "uint256",
                    "name": "tokenId",
                    "type": "uint256"
                }
            ],
            "name": "tokenURI",
            "outputs": [
                {
                    "internalType": "string",
                    "name": "",
                    "type": "string"
                }
            ],
            "stateMutability": "view",
            "type": "function"
        },
        {
            "inputs": [],
            "name": "totalSupply",
            "outputs": [
                {
                    "internalType": "uint256",
                    "name": "",
                    "type": "uint256"
                }
            ],
            "stateMutability": "view",
            "type": "function"
        },
        {
            "inputs": [
                {
                    "internalType": "address",
                    "name": "from",
                    "type": "address"
                },
                {
                    "internalType": "address",
                    "name": "to",
                    "type": "address"
                },
                {
                    "internalType": "uint256",
                    "name": "tokenId",
                    "type": "uint256"
                }
            ],
            "name": "transferFrom",
            "outputs": [],
            "stateMutability": "nonpayable",
            "type": "function"
        },
        {
            "inputs": [
                {
                    "internalType": "address",
                    "name": "newOwner",
                    "type": "address"
                }
            ],
            "name": "transferOwnership",
            "outputs": [],
            "stateMutability": "nonpayable",
            "type": "function"
        },
        {
            "inputs": [],
            "name": "withdraw",
            "outputs": [],
            "stateMutability": "nonpayable",
            "type": "function"
        }
    ],
    "bytecode": "0x60806040523480156200001157600080fd5b50604051620032d0380380620032d0833981016040819052620000349162000388565b604080518082018252600e81526d4576656e745469636b6574696e6760901b6020808301918252835180850190945260048452634556544b60e01b908401528151919291620000869160009162000215565b5080516200009c90600190602084019062000215565b505050620000b9620000b36200010b60201b60201c565b6200010f565b600e8490558251620000d390600f90602086019062000215565b5060108190558151620000ee90601190602085019062000215565b5060646012556200010160003362000161565b5050505062000441565b3390565b600b80546001600160a01b038381166001600160a01b0319831681179093556040519116919082907f8be0079c531659141344cd1fd0a4f28419497f9722a3daafe3b4186f6b6457e090600090a35050565b6200016d828262000171565b5050565b6000828152600c602090815260408083206001600160a01b038516845290915290205460ff166200016d576000828152600c602090815260408083206001600160a01b03851684529091529020805460ff19166001179055620001d13390565b6001600160a01b0316816001600160a01b0316837f2f8788117e7eff1d82e926ec794901d17c78024a50270940304540a733656f0d60405160405180910390a45050565b828054620002239062000404565b90600052602060002090601f01602090048101928262000247576000855562000292565b82601f106200026257805160ff191683800117855562000292565b8280016001018555821562000292579182015b828111156200029257825182559160200191906001019062000275565b50620002a0929150620002a4565b5090565b5b80821115620002a05760008155600101620002a5565b634e487b7160e01b600052604160045260246000fd5b600082601f830112620002e357600080fd5b81516001600160401b0380821115620003005762000300620002bb565b604051601f8301601f19908116603f011681019082821181831017156200032b576200032b620002bb565b816040528381526020925086838588010111156200034857600080fd5b600091505b838210156200036c57858201830151818301840152908201906200034d565b838211156200037e5760008385830101525b9695505050505050565b600080600080608085870312156200039f57600080fd5b845160208601519094506001600160401b0380821115620003bf57600080fd5b620003cd88838901620002d1565b94506040870151915080821115620003e457600080fd5b50620003f387828801620002d1565b606096909601519497939650505050565b600181811c908216806200041957607f821691505b602082108114156200043b57634e487b7160e01b600052602260045260246000fd5b50919050565b612e7f80620004516000396000f3fe6080604052600436106102675760003560e01c806367dd74ca11610144578063a22cb465116100b6578063e434d0a21161007a578063e434d0a21461078b578063e985e9c5146107bf578063ee47321a14610808578063f2fde38b1461081d578063f577a5001461083d578063f6d1d6521461085d57600080fd5b8063a22cb465146106eb578063b88d4fde1461070b578063c87b56dd1461072b578063d547741f1461074b578063daf62ebb1461076b57600080fd5b80638da5cb5b116101085780638da5cb5b1461064d57806391d148541461066b578063947e59b41461068b57806395d89b41146106ab5780639b894703146106c0578063a217fddf146106d657600080fd5b806367dd74ca146105d057806370a08231146105e3578063715018a6146106035780638043c9c014610618578063812e51f71461062d57600080fd5b80632f2ff15d116101dd57806342842e0e116101a157806342842e0e146104965780634f6ccce7146104b657806350b44712146104d657806362a2a9aa14610570578063634bfa49146105905780636352211e146105b057600080fd5b80632f2ff15d146104015780632f745c591461042157806331c864e81461044157806336568abe146104615780633ccfd60b1461048157600080fd5b80630d93e6091161022f5780630d93e6091461034157806313faede61461037157806318160ddd1461038757806323b872dd1461039c578063248a9ca3146103bc5780632a6ca755146103ec57600080fd5b806301ffc9a71461026c57806306fdde03146102a1578063081812fc146102c3578063095ea7b3146102fb5780630c317e7b1461031d575b600080fd5b34801561027857600080fd5b5061028c610287366004612847565b61088a565b60405190151581526020015b60405180910390f35b3480156102ad57600080fd5b506102b661089b565b60405161029891906128bc565b3480156102cf57600080fd5b506102e36102de3660046128cf565b61092d565b6040516001600160a01b039091168152602001610298565b34801561030757600080fd5b5061031b610316366004612904565b610954565b005b34801561032957600080fd5b5061033360105481565b604051908152602001610298565b34801561034d57600080fd5b5061033361035c3660046128cf565b60009081526014602052604090206001015490565b34801561037d57600080fd5b5061033360125481565b34801561039357600080fd5b50600854610333565b3480156103a857600080fd5b5061031b6103b736600461292e565b610a6f565b3480156103c857600080fd5b506103336103d73660046128cf565b6000908152600c602052604090206001015490565b3480156103f857600080fd5b506102b6610aa0565b34801561040d57600080fd5b5061031b61041c36600461296a565b610b2e565b34801561042d57600080fd5b5061033361043c366004612904565b610b53565b34801561044d57600080fd5b5061031b61045c3660046128cf565b610be9565b34801561046d57600080fd5b5061031b61047c36600461296a565b610c96565b34801561048d57600080fd5b5061031b610d10565b3480156104a257600080fd5b5061031b6104b136600461292e565b610d63565b3480156104c257600080fd5b506103336104d13660046128cf565b610d7e565b3480156104e257600080fd5b506105366104f13660046128cf565b60146020526000908152604090208054600182015460028301546003909301549192909160ff808216916101008104909116906201000090046001600160a01b031686565b6040805196875260208701959095529385019290925215156060840152151560808301526001600160a01b031660a082015260c001610298565b34801561057c57600080fd5b5061028c61058b3660046128cf565b610e11565b34801561059c57600080fd5b5061031b6105ab366004612996565b610e37565b3480156105bc57600080fd5b506102e36105cb3660046128cf565b610e6c565b61031b6105de3660046128cf565b610ecc565b3480156105ef57600080fd5b506103336105fe366004612996565b6110f8565b34801561060f57600080fd5b5061031b61117e565b34801561062457600080fd5b506102b6611192565b34801561063957600080fd5b5061031b6106483660046129b1565b61119f565b34801561065957600080fd5b50600b546001600160a01b03166102e3565b34801561067757600080fd5b5061028c61068636600461296a565b6113df565b34801561069757600080fd5b5061031b6106a63660046128cf565b61140a565b3480156106b757600080fd5b506102b661148c565b3480156106cc57600080fd5b50610333600e5481565b3480156106e257600080fd5b50610333600081565b3480156106f757600080fd5b5061031b6107063660046129e3565b61149b565b34801561071757600080fd5b5061031b610726366004612a35565b6114a6565b34801561073757600080fd5b506102b66107463660046128cf565b6114de565b34801561075757600080fd5b5061031b61076636600461296a565b6114e9565b34801561077757600080fd5b5061031b6107863660046128cf565b61150e565b34801561079757600080fd5b506103337f846b3416baf2034eb6fc9a55f2c0551358e1ebc556afaab07be9e0898e4cae4a81565b3480156107cb57600080fd5b5061028c6107da366004612b11565b6001600160a01b03918216600090815260056020908152604080832093909416825291909152205460ff1690565b34801561081457600080fd5b50610333611630565b34801561082957600080fd5b5061031b610838366004612996565b611640565b34801561084957600080fd5b5061028c6108583660046128cf565b6116b6565b34801561086957600080fd5b50610333610878366004612996565b60136020526000908152604090205481565b60006108958261170a565b92915050565b6060600080546108aa90612b3b565b80601f01602080910402602001604051908101604052809291908181526020018280546108d690612b3b565b80156109235780601f106108f857610100808354040283529160200191610923565b820191906000526020600020905b81548152906001019060200180831161090657829003601f168201915b5050505050905090565b60006109388261172f565b506000908152600460205260409020546001600160a01b031690565b600061095f82610e6c565b9050806001600160a01b0316836001600160a01b031614156109d25760405162461bcd60e51b815260206004820152602160248201527f4552433732313a20617070726f76616c20746f2063757272656e74206f776e656044820152603960f91b60648201526084015b60405180910390fd5b336001600160a01b03821614806109ee57506109ee81336107da565b610a605760405162461bcd60e51b815260206004820152603d60248201527f4552433732313a20617070726f76652063616c6c6572206973206e6f7420746f60448201527f6b656e206f776e6572206f7220617070726f76656420666f7220616c6c00000060648201526084016109c9565b610a6a838361178e565b505050565b610a7933826117fc565b610a955760405162461bcd60e51b81526004016109c990612b76565b610a6a83838361187b565b600f8054610aad90612b3b565b80601f0160208091040260200160405190810160405280929190818152602001828054610ad990612b3b565b8015610b265780601f10610afb57610100808354040283529160200191610b26565b820191906000526020600020905b815481529060010190602001808311610b0957829003601f168201915b505050505081565b6000828152600c6020526040902060010154610b49816119ec565b610a6a83836119f6565b6000610b5e836110f8565b8210610bc05760405162461bcd60e51b815260206004820152602b60248201527f455243373231456e756d657261626c653a206f776e657220696e646578206f7560448201526a74206f6620626f756e647360a81b60648201526084016109c9565b506001600160a01b03919091166000908152600660209081526040808320938352929052205490565b610bf1611a7c565b600e54811115610c4f5760405162461bcd60e51b8152602060048201526024808201527f4d6178206e756d626572206f66207469636b65747320616c7265616479206d696044820152631b9d195960e21b60648201526084016109c9565b60005b81811015610c92576000610c65600d5490565b9050610c75600d80546001019055565b610c7f3382611ad6565b5080610c8a81612bd9565b915050610c52565b5050565b6001600160a01b0381163314610d065760405162461bcd60e51b815260206004820152602f60248201527f416363657373436f6e74726f6c3a2063616e206f6e6c792072656e6f756e636560448201526e103937b632b9903337b91039b2b63360891b60648201526084016109c9565b610c928282611af0565b610d18611a7c565b47610d2b600b546001600160a01b031690565b6001600160a01b03166108fc829081150290604051600060405180830381858888f19350505050158015610c92573d6000803e3d6000fd5b610a6a838383604051806020016040528060008152506114a6565b6000610d8960085490565b8210610dec5760405162461bcd60e51b815260206004820152602c60248201527f455243373231456e756d657261626c653a20676c6f62616c20696e646578206f60448201526b7574206f6620626f756e647360a01b60648201526084016109c9565b60088281548110610dff57610dff612bf4565b90600052602060002001549050919050565b6000908152601460205260409020600301546201000090046001600160a01b0316151590565b610e3f611a7c565b610e697f846b3416baf2034eb6fc9a55f2c0551358e1ebc556afaab07be9e0898e4cae4a82610b2e565b50565b6000818152600260205260408120546001600160a01b0316806108955760405162461bcd60e51b8152602060048201526018602482015277115490cdcc8c4e881a5b9d985b1a59081d1bdad95b88125160421b60448201526064016109c9565b610ed581610e11565b15610f175760405162461bcd60e51b815260206004820152601260248201527129b2b0ba1030b63932b0b23c903a30b5b2b760711b60448201526064016109c9565b600d54811115610f655760405162461bcd60e51b81526020600482015260196024820152784e6f7420656e6f756768206d696e746564207469636b65747360381b60448201526064016109c9565b60008181526014602052604090206003015460ff610100909104161515600114610fc75760405162461bcd60e51b8152602060048201526013602482015272151a58dad95d081a5cc81b9bdd081d985b1a59606a1b60448201526064016109c9565b6000818152601460205260409020600101543410156110205760405162461bcd60e51b8152602060048201526015602482015274139bdd08195b9bdd59da08199d5b991cc81cd95b9d605a1b60448201526064016109c9565b6000818152601460205260409020600301805462010000600160b01b03191633620100008102919091179091556110579082611ad6565b6000818152601460205260409020600101543411156110bc5760008181526014602052604090206001015433906108fc906110929034612c0a565b6040518115909202916000818181858888f193505050501580156110ba573d6000803e3d6000fd5b505b604080518281523360208201527f6606e4c8a88792ed4fd5159f9be235ca78e87fc1cbdc6158ea92d3ed3be9bf7291015b60405180910390a150565b60006001600160a01b0382166111625760405162461bcd60e51b815260206004820152602960248201527f4552433732313a2061646472657373207a65726f206973206e6f7420612076616044820152683634b21037bbb732b960b91b60648201526084016109c9565b506001600160a01b031660009081526003602052604090205490565b611186611a7c565b6111906000611b57565b565b60118054610aad90612b3b565b6111a7611a7c565b6111b083610e11565b156111f45760405162461bcd60e51b815260206004820152601460248201527314d9585d08185b1c9958591e4818dc99585d195960621b60448201526064016109c9565b600e548411156112525760405162461bcd60e51b8152602060048201526024808201527f5469636b65742049442069732067726561746572207468616e206d61785469636044820152636b65747360e01b60648201526084016109c9565b600e548311156112b35760405162461bcd60e51b815260206004820152602660248201527f53656174206e756d6265722069732067726561746572207468616e206d61785460448201526569636b65747360d01b60648201526084016109c9565b600d548411156113015760405162461bcd60e51b81526020600482015260196024820152784e6f7420656e6f756768206d696e746564207469636b65747360381b60448201526064016109c9565b6040805160c081018252848152602080820185815282840185815260006060850181815260016080870181815260a088018481528d8552601488529389902088518155955191860191909155925160028501555160039093018054925191516001600160a01b0316620100000262010000600160b01b03199215156101000261ff00199515159590951661ffff199094169390931793909317161790558251878152339181019190915290917f960fa3b53d2527c64fb943b9502a4541b1137488cb027f95b36b06b44d10fedc910160405180910390a15050505050565b6000918252600c602090815260408084206001600160a01b0393909316845291905290205460ff1690565b611412611a7c565b6000818152601460205260409020600201546114405760405162461bcd60e51b81526004016109c990612c21565b60008181526014602052604090819020600301805461ff0019169055517f0b85dd1448de72541ab9f2a9a8d8024b26ec89b9a6675ddcd8cfe1d1d2c60224906110ed9083815260200190565b6060600180546108aa90612b3b565b610c92338383611ba9565b6114b033836117fc565b6114cc5760405162461bcd60e51b81526004016109c990612b76565b6114d884848484611c78565b50505050565b606061089582611cab565b6000828152600c6020526040902060010154611504816119ec565b610a6a8383611af0565b7f846b3416baf2034eb6fc9a55f2c0551358e1ebc556afaab07be9e0898e4cae4a611538816119ec565b6000828152601460205260409020600201546115665760405162461bcd60e51b81526004016109c990612c21565b600082815260146020526040902060030154610100900460ff166115c45760405162461bcd60e51b81526020600482015260156024820152745469636b6574206d7573742062652076616c69642160581b60448201526064016109c9565b60008281526014602052604090819020600301805460ff19166001179055517fcc6b0d410e7ef73ccc91ccbb9c6511f62cd7d587a3ac7adabeaca71c3346cbf99061162490849033909182526001600160a01b0316602082015260400190565b60405180910390a15050565b600061163b600d5490565b905090565b611648611a7c565b6001600160a01b0381166116ad5760405162461bcd60e51b815260206004820152602660248201527f4f776e61626c653a206e6577206f776e657220697320746865207a65726f206160448201526564647265737360d01b60648201526084016109c9565b610e6981611b57565b600081815260146020526040812060030154610100900460ff166116ec5760405162461bcd60e51b81526004016109c990612c21565b50600090815260146020526040902060030154610100900460ff1690565b60006001600160e01b03198216637965db0b60e01b1480610895575061089582611dd9565b6000818152600260205260409020546001600160a01b0316610e695760405162461bcd60e51b8152602060048201526018602482015277115490cdcc8c4e881a5b9d985b1a59081d1bdad95b88125160421b60448201526064016109c9565b600081815260046020526040902080546001600160a01b0319166001600160a01b03841690811790915581906117c382610e6c565b6001600160a01b03167f8c5be1e5ebec7d5bd14f71427d1e84f3dd0314c0f7b2291e5b200ac8c7c3b92560405160405180910390a45050565b60008061180883610e6c565b9050806001600160a01b0316846001600160a01b0316148061184f57506001600160a01b0380821660009081526005602090815260408083209388168352929052205460ff165b806118735750836001600160a01b03166118688461092d565b6001600160a01b0316145b949350505050565b826001600160a01b031661188e82610e6c565b6001600160a01b0316146118b45760405162461bcd60e51b81526004016109c990612c50565b6001600160a01b0382166119165760405162461bcd60e51b8152602060048201526024808201527f4552433732313a207472616e7366657220746f20746865207a65726f206164646044820152637265737360e01b60648201526084016109c9565b6119238383836001611dfe565b826001600160a01b031661193682610e6c565b6001600160a01b03161461195c5760405162461bcd60e51b81526004016109c990612c50565b600081815260046020908152604080832080546001600160a01b03199081169091556001600160a01b0387811680865260038552838620805460001901905590871680865283862080546001019055868652600290945282852080549092168417909155905184937fddf252ad1be2c89b69c2b068fc378daa952ba7f163c4a11628f55a4df523b3ef91a4505050565b610e698133611e0a565b611a0082826113df565b610c92576000828152600c602090815260408083206001600160a01b03851684529091529020805460ff19166001179055611a383390565b6001600160a01b0316816001600160a01b0316837f2f8788117e7eff1d82e926ec794901d17c78024a50270940304540a733656f0d60405160405180910390a45050565b600b546001600160a01b031633146111905760405162461bcd60e51b815260206004820181905260248201527f4f776e61626c653a2063616c6c6572206973206e6f7420746865206f776e657260448201526064016109c9565b610c92828260405180602001604052806000815250611e63565b611afa82826113df565b15610c92576000828152600c602090815260408083206001600160a01b0385168085529252808320805460ff1916905551339285917ff6391f5c32d9c69d2a47ea670b442974b53935d1edc7fd64eb21e047a839171b9190a45050565b600b80546001600160a01b038381166001600160a01b0319831681179093556040519116919082907f8be0079c531659141344cd1fd0a4f28419497f9722a3daafe3b4186f6b6457e090600090a35050565b816001600160a01b0316836001600160a01b03161415611c0b5760405162461bcd60e51b815260206004820152601960248201527f4552433732313a20617070726f766520746f2063616c6c65720000000000000060448201526064016109c9565b6001600160a01b03838116600081815260056020908152604080832094871680845294825291829020805460ff191686151590811790915591519182527f17307eab39ab6107e8899845ad3d59bd9653f200f220920489ca2b5937696c31910160405180910390a3505050565b611c8384848461187b565b611c8f84848484611e96565b6114d85760405162461bcd60e51b81526004016109c990612c95565b6060611cb68261172f565b6000828152600a602052604081208054611ccf90612b3b565b80601f0160208091040260200160405190810160405280929190818152602001828054611cfb90612b3b565b8015611d485780601f10611d1d57610100808354040283529160200191611d48565b820191906000526020600020905b815481529060010190602001808311611d2b57829003601f168201915b505050505090506000611d8b60408051808201909152601d81527f687474703a2f2f7777772e746f626564657465726d696e65642e636f6d000000602082015290565b9050805160001415611d9e575092915050565b815115611dd0578082604051602001611db8929190612ce7565b60405160208183030381529060405292505050919050565b61187384611fa3565b60006001600160e01b03198216632483248360e11b148061089557506108958261203c565b6114d884848484612061565b611e1482826113df565b610c9257611e2181612195565b611e2c8360206121a7565b604051602001611e3d929190612d16565b60408051601f198184030181529082905262461bcd60e51b82526109c9916004016128bc565b611e6d8383612343565b611e7a6000848484611e96565b610a6a5760405162461bcd60e51b81526004016109c990612c95565b60006001600160a01b0384163b15611f9857604051630a85bd0160e11b81526001600160a01b0385169063150b7a0290611eda903390899088908890600401612d8b565b602060405180830381600087803b158015611ef457600080fd5b505af1925050508015611f24575060408051601f3d908101601f19168201909252611f2191810190612dc8565b60015b611f7e573d808015611f52576040519150601f19603f3d011682016040523d82523d6000602084013e611f57565b606091505b508051611f765760405162461bcd60e51b81526004016109c990612c95565b805181602001fd5b6001600160e01b031916630a85bd0160e11b149050611873565b506001949350505050565b6060611fae8261172f565b6000611fea60408051808201909152601d81527f687474703a2f2f7777772e746f626564657465726d696e65642e636f6d000000602082015290565b9050600081511161200a5760405180602001604052806000815250612035565b80612014846124dc565b604051602001612025929190612ce7565b6040516020818303038152906040525b9392505050565b60006001600160e01b0319821663780e9d6360e01b1480610895575061089582612579565b60018111156120d05760405162461bcd60e51b815260206004820152603560248201527f455243373231456e756d657261626c653a20636f6e7365637574697665207472604482015274185b9cd9995c9cc81b9bdd081cdd5c1c1bdc9d1959605a1b60648201526084016109c9565b816001600160a01b03851661212c5761212781600880546000838152600960205260408120829055600182018355919091527ff3f7a9fe364faab93b216da50a3214154f22a0a2b415b23a84c8169e8b636ee30155565b61214f565b836001600160a01b0316856001600160a01b03161461214f5761214f85826125c9565b6001600160a01b03841661216b5761216681612666565b61218e565b846001600160a01b0316846001600160a01b03161461218e5761218e8482612715565b5050505050565b60606108956001600160a01b03831660145b606060006121b6836002612de5565b6121c1906002612e04565b67ffffffffffffffff8111156121d9576121d9612a1f565b6040519080825280601f01601f191660200182016040528015612203576020820181803683370190505b509050600360fc1b8160008151811061221e5761221e612bf4565b60200101906001600160f81b031916908160001a905350600f60fb1b8160018151811061224d5761224d612bf4565b60200101906001600160f81b031916908160001a9053506000612271846002612de5565b61227c906001612e04565b90505b60018111156122f4576f181899199a1a9b1b9c1cb0b131b232b360811b85600f16601081106122b0576122b0612bf4565b1a60f81b8282815181106122c6576122c6612bf4565b60200101906001600160f81b031916908160001a90535060049490941c936122ed81612e1c565b905061227f565b5083156120355760405162461bcd60e51b815260206004820181905260248201527f537472696e67733a20686578206c656e67746820696e73756666696369656e7460448201526064016109c9565b6001600160a01b0382166123995760405162461bcd60e51b815260206004820181905260248201527f4552433732313a206d696e7420746f20746865207a65726f206164647265737360448201526064016109c9565b6000818152600260205260409020546001600160a01b0316156123fe5760405162461bcd60e51b815260206004820152601c60248201527f4552433732313a20746f6b656e20616c7265616479206d696e7465640000000060448201526064016109c9565b61240c600083836001611dfe565b6000818152600260205260409020546001600160a01b0316156124715760405162461bcd60e51b815260206004820152601c60248201527f4552433732313a20746f6b656e20616c7265616479206d696e7465640000000060448201526064016109c9565b6001600160a01b038216600081815260036020908152604080832080546001019055848352600290915280822080546001600160a01b0319168417905551839291907fddf252ad1be2c89b69c2b068fc378daa952ba7f163c4a11628f55a4df523b3ef908290a45050565b606060006124e983612759565b600101905060008167ffffffffffffffff81111561250957612509612a1f565b6040519080825280601f01601f191660200182016040528015612533576020820181803683370190505b5090508181016020015b600019016f181899199a1a9b1b9c1cb0b131b232b360811b600a86061a8153600a850494508461256c57612571565b61253d565b509392505050565b60006001600160e01b031982166380ac58cd60e01b14806125aa57506001600160e01b03198216635b5e139f60e01b145b8061089557506301ffc9a760e01b6001600160e01b0319831614610895565b600060016125d6846110f8565b6125e09190612c0a565b600083815260076020526040902054909150808214612633576001600160a01b03841660009081526006602090815260408083208584528252808320548484528184208190558352600790915290208190555b5060009182526007602090815260408084208490556001600160a01b039094168352600681528383209183525290812055565b60085460009061267890600190612c0a565b600083815260096020526040812054600880549394509092849081106126a0576126a0612bf4565b9060005260206000200154905080600883815481106126c1576126c1612bf4565b60009182526020808320909101929092558281526009909152604080822084905585825281205560088054806126f9576126f9612e33565b6001900381819060005260206000200160009055905550505050565b6000612720836110f8565b6001600160a01b039093166000908152600660209081526040808320868452825280832085905593825260079052919091209190915550565b60008072184f03e93ff9f4daa797ed6e38ed64bf6a1f0160401b83106127985772184f03e93ff9f4daa797ed6e38ed64bf6a1f0160401b830492506040015b6d04ee2d6d415b85acef810000000083106127c4576d04ee2d6d415b85acef8100000000830492506020015b662386f26fc1000083106127e257662386f26fc10000830492506010015b6305f5e10083106127fa576305f5e100830492506008015b612710831061280e57612710830492506004015b60648310612820576064830492506002015b600a83106108955760010192915050565b6001600160e01b031981168114610e6957600080fd5b60006020828403121561285957600080fd5b813561203581612831565b60005b8381101561287f578181015183820152602001612867565b838111156114d85750506000910152565b600081518084526128a8816020860160208601612864565b601f01601f19169290920160200192915050565b6020815260006120356020830184612890565b6000602082840312156128e157600080fd5b5035919050565b80356001600160a01b03811681146128ff57600080fd5b919050565b6000806040838503121561291757600080fd5b612920836128e8565b946020939093013593505050565b60008060006060848603121561294357600080fd5b61294c846128e8565b925061295a602085016128e8565b9150604084013590509250925092565b6000806040838503121561297d57600080fd5b8235915061298d602084016128e8565b90509250929050565b6000602082840312156129a857600080fd5b612035826128e8565b600080600080608085870312156129c757600080fd5b5050823594602084013594506040840135936060013592509050565b600080604083850312156129f657600080fd5b6129ff836128e8565b915060208301358015158114612a1457600080fd5b809150509250929050565b634e487b7160e01b600052604160045260246000fd5b60008060008060808587031215612a4b57600080fd5b612a54856128e8565b9350612a62602086016128e8565b925060408501359150606085013567ffffffffffffffff80821115612a8657600080fd5b818701915087601f830112612a9a57600080fd5b813581811115612aac57612aac612a1f565b604051601f8201601f19908116603f01168101908382118183101715612ad457612ad4612a1f565b816040528281528a6020848701011115612aed57600080fd5b82602086016020830137600060208483010152809550505050505092959194509250565b60008060408385031215612b2457600080fd5b612b2d836128e8565b915061298d602084016128e8565b600181811c90821680612b4f57607f821691505b60208210811415612b7057634e487b7160e01b600052602260045260246000fd5b50919050565b6020808252602d908201527f4552433732313a2063616c6c6572206973206e6f7420746f6b656e206f776e6560408201526c1c881bdc88185c1c1c9bdd9959609a1b606082015260800190565b634e487b7160e01b600052601160045260246000fd5b6000600019821415612bed57612bed612bc3565b5060010190565b634e487b7160e01b600052603260045260246000fd5b600082821015612c1c57612c1c612bc3565b500390565b6020808252601590820152745469636b657420646f65736e27742065786973742160581b604082015260600190565b60208082526025908201527f4552433732313a207472616e736665722066726f6d20696e636f72726563742060408201526437bbb732b960d91b606082015260800190565b60208082526032908201527f4552433732313a207472616e7366657220746f206e6f6e20455243373231526560408201527131b2b4bb32b91034b6b83632b6b2b73a32b960711b606082015260800190565b60008351612cf9818460208801612864565b835190830190612d0d818360208801612864565b01949350505050565b7f416363657373436f6e74726f6c3a206163636f756e7420000000000000000000815260008351612d4e816017850160208801612864565b7001034b99036b4b9b9b4b733903937b6329607d1b6017918401918201528351612d7f816028840160208801612864565b01602801949350505050565b6001600160a01b0385811682528416602082015260408101839052608060608201819052600090612dbe90830184612890565b9695505050505050565b600060208284031215612dda57600080fd5b815161203581612831565b6000816000190483118215151615612dff57612dff612bc3565b500290565b60008219821115612e1757612e17612bc3565b500190565b600081612e2b57612e2b612bc3565b506000190190565b634e487b7160e01b600052603160045260246000fdfea2646970667358221220132071cd716bb3c8807da0aea4b1179d316f508a441221797846adc704c2040664736f6c63430008090033",
    "linkReferences": {},
    "deployedLinkReferences": {}
}